:100000000C942A000C943F000C943F000C943F0089
:100010000C943F000C943F000C943F000C943F0064
:100020000C943F000C943F000C943F000C943F0054
:100030000C943F000C943F000C943F000C943F0044
:100040000C943F000C943F000C943F000C943F0034
:100050000C943F0011241FBECFE5D8E0DEBFCDBF1A
:1000600011E0A0E6B0E0E2EEF0E302C005900D92F0
:10007000A037B107D9F70E94420D0C946F180C9469
:100080000000EF92FF920F931F937B018C0120E001
:1000900030E040E05FE40E94ED0388238CF0C8016B
:1000A000B70120E030E040E05FE40E94B9010E9427
:1000B0004D049B01AC01205030404040504806C0E8
:1000C000C801B7010E944D049B01AC01B901CA01EE
:1000D0001F910F91FF90EF900895A0E0B0E0E3E74B
:1000E000F0E00C94BC17DC012B01FA019C919230DA
:1000F00008F439C1EB018881823008F433C19430AF
:1001000069F4843009F02FC111969C91119789816F
:10011000981709F428C1A8E6B0E025C1843009F495
:1001200021C18230A9F4923009F01DC19A01AD01BC
:1001300088E0EA010990AE01E90109929E0181502F
:10014000C1F7E201898111969C918923818308C1BD
:10015000923009F407C112962D903C901397EB0151
:100160008A819B811496AD90BD90CD90DC901797BD
:10017000EC80FD800E811F819101281B390BB90194
:1001800037FF04C066277727621B730B6032710547
:100190000CF061C0121613066CF537014801062EEB
:1001A00004C096948794779467940A94D2F721E0D8
:1001B00030E040E050E004C0220F331F441F551FC1
:1001C0006A95D2F721503040404050402E213F21C7
:1001D00040235123211531054105510521F021E02E
:1001E00030E040E050E079018A01E628F72808294C
:1001F00019293CC0232BD1F1260E371E35014601AB
:10020000062E04C096948794779467940A94D2F744
:1002100021E030E040E050E004C0220F331F441FD3
:10022000551F6A95D2F721503040404050402A2156
:100230003B214C215D21211531054105510521F05E
:1002400021E030E040E050E059016A01A628B728DB
:10025000C828D9280BC0821593052CF01C01AA24AC
:10026000BB24650103C0EE24FF24870111969C91F5
:10027000D20111968C91981709F445C0992339F051
:10028000A80197012A193B094C095D0906C0A6017E
:1002900095012E193F09400B510B57FD08C01182E3
:1002A0003382228224833583468357831DC081E0B5
:1002B00081833382228288279927DC01821B930B5A
:1002C000A40BB50B84839583A683B7830DC0220F3F
:1002D000331F441F551F24833583468357838281F0
:1002E000938101979383828324813581468157814D
:1002F000DA01C9010197A109B1098F5F9F4FAF4F83
:10030000BF4328F30BC0918333822282EA0CFB1C8B
:100310000C1D1D1DE482F5820683178383E0808314
:10032000248135814681578157FF1AC0C901AA2708
:1003300097FDA095BA2F81709070A070B0705695FF
:10034000479537952795822B932BA42BB52B848328
:100350009583A683B7838281938101969383828359
:10036000DF0101C0D201CD01CDB7DEB7E2E10C94CF
:10037000D817A0E2B0E0EFEBF1E00C94C817698366
:100380007A838B839C832D833E834F835887E9E058
:10039000EE2EF12CEC0EFD1ECE010196B7010E944F
:1003A0003E068E010F5E1F4FCE010596B8010E94DA
:1003B0003E068A8991E089278A8BC701B801AE0180
:1003C000475E5F4F0E946D000E946905A096E6E0BF
:1003D0000C94E417A0E2B0E0E0EFF1E00C94C81751
:1003E00069837A838B839C832D833E834F835887D5
:1003F000F9E0EF2EF12CEC0EFD1ECE010196B701B7
:100400000E943E068E010F5E1F4FCE010596B80179
:100410000E943E06C701B801AE01475E5F4F0E94D1
:100420006D000E946905A096E6E00C94E417A0E236
:10043000B0E0EDE1F2E00C94BC1769837A838B8322
:100440009C832D833E834F835887CE010196BE0146
:10045000675F7F4F0E943E06CE010596BE016F5E2C
:100460007F4F0E943E069985923088F089898230BC
:10047000C8F0943019F4823051F404C0843029F467
:10048000923081F488E690E0C6C0923049F420E0D2
:100490009A858A89981321E02A87CE010996BBC0E4
:1004A000823049F420E09A858A89981321E02A8BCA
:1004B000CE014196B0C02D843E844F8458886D880B
:1004C0007E888F88988CEE24FF248701AA24BB2481
:1004D000650140E050E060E070E0E0E0F0E0C10184
:1004E00081709070892BE9F0E60CF71C081D191D2E
:1004F0009A01AB012A0D3B1D4C1D5D1D80E090E073
:10050000A0E0B0E0E614F7040805190520F481E046
:1005100090E0A0E0B0E0BA01A901480F591F6A1F9E
:100520007B1FAA0CBB1CCC1CDD1C97FE08C081E005
:1005300090E0A0E0B0E0A82AB92ACA2ADB2A3196C6
:10054000E032F10549F0660C771C881C991C569422
:10055000479437942794C3CFFA85EA892B893C893D
:100560008B859C85280F391F2E5F3F4F17C0CA010E
:1005700081709070892B61F016950795F794E79438
:1005800080E090E0A0E0B0E8E82AF92A0A2B1B2BD3
:1005900076956795579547952F5F3F4F77FDE7CF46
:1005A0000CC0440F551F661F771F17FD4160EE0CEE
:1005B000FF1C001F111F21503040403090E05907B0
:1005C00090E0690790E4790760F32B8F3C8FDB01A3
:1005D000CA018F779070A070B07080349105A1052A
:1005E000B10561F447FD0AC0E114F10401051105EC
:1005F00029F0405C5F4F6F4F7F4F40781A8EFE1797
:1006000011F081E08A8F4D8F5E8F6F8F78A383E02A
:10061000898FCE0149960E946905A096E2E10C946B
:10062000D817A8E1B0E0E7E1F3E00C94C4176983C0
:100630007A838B839C832D833E834F835887B9E0D5
:10064000EB2EF12CEC0EFD1ECE010196B7010E949F
:100650003E068E010F5E1F4FCE010596B8010E9427
:100660003E062985223008F47EC03989323010F4E4
:10067000B8017CC08A859A8989278A87243011F03D
:10068000223031F4231709F06EC068E670E06EC0C6
:10069000343039F41D861E861F86188A1C861B86F8
:1006A00004C0323021F484E08987B7015FC02B8514
:1006B0003C858B899C89281B390B3C872B87ED84D3
:1006C000FE840F851889AD88BE88CF88D88CEA143F
:1006D000FB040C051D0540F4EE0CFF1C001F111F50
:1006E000215030403C872B8720E030E040E050E054
:1006F00080E090E0A0E0B0E460E070E0EA14FB0489
:100700000C051D0540F0282B392B4A2B5B2BEA18D2
:10071000FB080C091D09B695A79597958795EE0CD2
:10072000FF1C001F111F6F5F7F4F6F31710531F785
:10073000DA01C9018F779070A070B0708034910594
:10074000A105B10561F427FD0AC0E114F10401051A
:10075000110529F0205C3F4F4F4F5F4F20782D87C8
:100760003E874F87588BBE01675F7F4FCB010E944A
:1007700069056896EAE00C94E017A8E1B0E0E3ECC4
:10078000F3E00C94C81769837A838B839C832D8351
:100790003E834F83588789E0E82EF12CEC0EFD1E36
:1007A000CE010196B7010E943E068E010F5E1F4FDB
:1007B000CE010596B8010E943E068985823040F040
:1007C0008989823028F0C701B8010E94B60601C0AD
:1007D0008FEF6896E6E00C94E417A8E1B0E0E3EF51
:1007E000F3E00C94C81769837A838B839C832D83F1
:1007F0003E834F83588789E0E82EF12CEC0EFD1ED6
:10080000CE010196B7010E943E068E010F5E1F4F7A
:10081000CE010596B8010E943E068985823040F0DF
:100820008989823028F0C701B8010E94B60601C04C
:100830008FEF6896E6E00C94E417A8E1B0E0E3E2FD
:10084000F4E00C94C81769837A838B839C832D838F
:100850003E834F83588789E0E82EF12CEC0EFD1E75
:10086000CE010196B7010E943E068E010F5E1F4F1A
:10087000CE010596B8010E943E068985823040F07F
:100880008989823028F0C701B8010E94B60601C0EC
:1008900081E06896E6E00C94E417ACE0B0E0E3E5B4
:1008A000F4E00C94CC1769837A838B839C83CE010C
:1008B0000196BE016B5F7F4F0E943E068D818230A4
:1008C00061F1823050F1843021F48E81882351F11E
:1008D0002EC02F81388537FD20C06E812F31310524
:1008E0001CF06623F9F023C08EE190E0821B930B8D
:1008F00029853A854B855C8504C056954795379583
:1009000027958A95D2F76623B1F05095409530959A
:1009100021953F4F4F4F5F4F0EC020E030E040E049
:1009200050E009C02FEF3FEF4FEF5FE704C020E03A
:1009300030E040E050E8B901CA012C96E2E00C94A6
:10094000E817A8E0B0E0E7EAF4E00C94C4177B01F4
:100950008C01611571058105910519F482E0898387
:1009600060C083E089838EE1C82ED12CDC82CB82EB
:10097000ED82FE820F831887C801B7010E941A0515
:10098000FC013197F7FF3BC0222733272E1B3F0B7B
:1009900057016801022E04C0D694C794B794A79457
:1009A0000A94D2F740E050E060E070E081E090E02F
:1009B000A0E0B0E004C0880F991FAA1FBB1F2A95B2
:1009C000D2F70197A109B1098E219F21A023B1235C
:1009D0000097A105B10521F041E050E060E070E032
:1009E0004A295B296C297D294D835E836F83788733
:1009F0008EE190E08E1B9F0B9C838B8312C03097FF
:100A000081F00E2E04C0EE0CFF1C001F111F0A9473
:100A1000D2F7ED82FE820F831887CE1ADF0ADC82BE
:100A2000CB821A82CE0101960E9469052896EAE0DF
:100A30000C94E017EF92FF920F931F937B018C01B0
:100A400080E0E81680E0F80681E0080780E01807FB
:100A500088F48FEFE816F1040105110531F028F054
:100A600088E090E0A0E0B0E017C080E090E0A0E077
:100A7000B0E012C080E0E81680E0F80680E00807E9
:100A800081E0180728F088E190E0A0E0B0E004C021
:100A900080E190E0A0E0B0E020E230E040E050E013
:100AA000281B390B4A0B5B0B04C016950795F7946E
:100AB000E7948A95D2F7F701E059FF4F8081281B10
:100AC000310941095109C9011F910F91FF90EF9020
:100AD0000895DF92EF92FF920F931F93FC01E48041
:100AE000F58006811781D1808081823048F480E0D2
:100AF00090E0A0E1B0E0E82AF92A0A2B1B2BA5C060
:100B0000843009F49FC0823021F4EE24FF24870151
:100B100005C0E114F1040105110519F4E0E0F0E06D
:100B200096C0628173819FEF623879070CF05BC0D9
:100B300022E83FEF261B370B2A3131052CF020E04D
:100B400030E040E050E02AC0B801A701022E04C006
:100B500076956795579547950A94D2F781E090E08E
:100B6000A0E0B0E004C0880F991FAA1FBB1F2A9500
:100B7000D2F70197A109B1098E219F21A023B123AA
:100B80000097A105B10521F081E090E0A0E0B0E080
:100B90009A01AB01282B392B4A2B5B2BDA01C901B7
:100BA0008F779070A070B07080349105A105B10569
:100BB00039F427FF09C0205C3F4F4F4F5F4F04C0FF
:100BC000215C3F4F4F4F5F4FE0E0F0E02030A0E06E
:100BD0003A07A0E04A07A0E45A0710F0E1E0F0E08D
:100BE00079018A0127C06038710564F5FB01E1587D
:100BF000FF4FD801C7018F779070A070B07080341C
:100C00009105A105B10539F4E7FE0DC080E490E03F
:100C1000A0E0B0E004C08FE390E0A0E0B0E0E80E18
:100C2000F91E0A1F1B1F17FF05C016950795F7949D
:100C3000E794319687E016950795F794E7948A959F
:100C4000D1F705C0EE24FF248701EFEFF0E06E2F0F
:100C5000679566276795902F9F77D794DD24D79463
:100C60008E2F8695492F462B582F5D29B701CA0133
:100C70001F910F91FF90EF90DF900895FC01DB0131
:100C8000408151812281622F6F7770E0221F2227DD
:100C9000221F9381892F880F822B282F30E0991FE4
:100CA0009927991F11969C93119721153105A9F544
:100CB000411551056105710511F482E037C082E8E4
:100CC0009FEF13969C938E9312979A01AB0167E066
:100CD000220F331F441F551F6A95D1F783E08C9371
:100CE0000DC0220F331F441F551F12968D919C91EA
:100CF0001397019713969C938E931297203080E060
:100D0000380780E0480780E4580758F314962D937D
:100D10003D934D935C93179708952F3F310579F4D8
:100D2000411551056105710519F484E08C9308950E
:100D300064FF03C081E08C9312C01C9210C02F5737
:100D4000304013963C932E93129783E08C9387E068
:100D5000440F551F661F771F8A95D1F7706414964C
:100D60004D935D936D937C93179708951F93DC01CA
:100D7000FB019C91923008F447C08081823008F4D6
:100D800043C0943051F411961C91843099F58181BF
:100D9000682F70E0611B71093FC0843021F09230F0
:100DA00031F48230B9F18181882389F12DC0119607
:100DB0001C9111978230F1F081811817D9F41296A5
:100DC0002D913C911397828193818217930794F020
:100DD00028173907BCF014968D919D910D90BC9108
:100DE000A02D2481358146815781281739074A076C
:100DF0005B0718F4112341F00AC082179307A40778
:100E0000B50740F4112319F061E070E005C06FEF01
:100E10007FEF02C060E070E0CB011F910895DF9387
:100E2000CF9300D000D0CDB7DEB78A8319828A81F4
:100E3000282F30E03C832B838B819C81009769F0C5
:100E40002B813C812130310581F4AFE5B0E0EFE545
:100E5000F0E0808180688C930AC0AFE5B0E0EFE5F8
:100E6000F0E080818F778C9302C081E08983898153
:100E70000F900F900F900F90CF91DF910895DF9317
:100E8000CF9300D000D0CDB7DEB78A8319828A8194
:100E9000282F30E03C832B838B819C81813091050E
:100EA000C1F02B813C812230310511F18B819C8175
:100EB000009769F5AFE5B0E0EFE5F0E0808180688C
:100EC0008C93ABE5B0E0EBE5F0E0808180648C933F
:100ED00020C0AFE5B0E0EFE5F0E0808180688C9362
:100EE000ABE5B0E0EBE5F0E0808180688C9311C069
:100EF000AFE5B0E0EFE5F0E0808180688C93ABE592
:100F0000B0E0EBE5F0E0808180628C9302C081E08C
:100F1000898389810F900F900F900F90CF91DF916F
:100F20000895DF93CF9300D000D0CDB7DEB78A838A
:100F300019828A81282F30E03C832B838B819C810E
:100F40008130910589F02B813C8122303105A1F05F
:100F50008B819C810097C1F4ABE5B0E0EBE5F0E05C
:100F600080818F7B8C9312C0ABE5B0E0EBE5F0E0C5
:100F700080818F778C930AC0ABE5B0E0EBE5F0E0C1
:100F800080818F7D8C9302C081E0898389810F905D
:100F90000F900F900F90CF91DF910895DF93CF9333
:100FA000CDB7DEB72B970FB6F894DEBF0FBECDBF1F
:100FB0008A836B8319828A81282F30E03B872A87B6
:100FC0008A859B858130910509F469C02A853B8516
:100FD0002230310509F4C1C08A859B85009709F04C
:100FE000DFC08B81282F30E0398728878885998555
:100FF0008130910521F128853985223031052CF485
:1010000088859985009761F047C028853985223009
:10101000310521F1888599858330910571F13CC0B6
:10102000A5E5B0E0E5E5F0E080818E7F8C93A5E555
:10103000B0E0E5E5F0E080818D7F8C93B3C0A5E55D
:10104000B0E0E5E5F0E0808181608C93A5E5B0E05B
:10105000E5E5F0E080818D7F8C93A4C0A5E5B0E04C
:10106000E5E5F0E080818E7F8C93A5E5B0E0E5E5D5
:10107000F0E0808182608C9395C0A5E5B0E0E5E565
:10108000F0E0808181608C93A5E5B0E0E5E5F0E0DB
:10109000808182608C9386C081E0898383C08B814C
:1010A000282F30E03F832E838E819F8181309105F0
:1010B00021F12E813F81223031052CF48E819F81D8
:1010C000009761F047C02E813F812230310521F128
:1010D0008E819F818330910571F13CC0A5E5B0E020
:1010E000E5E5F0E080818B7F8C93A5E5B0E0E5E558
:1010F000F0E08081877F8C9355C0A5E5B0E0E5E501
:10110000F0E0808184608C93A5E5B0E0E5E5F0E057
:101110008081877F8C9346C0A5E5B0E0E5E5F0E0EF
:1011200080818B7F8C93A5E5B0E0E5E5F0E08081E0
:1011300088608C9337C0A5E5B0E0E5E5F0E08081FC
:1011400084608C93A5E5B0E0E5E5F0E080818860FF
:101150008C9328C081E0898325C08B81282F30E0C3
:101160003D832C838C819D818230910531F02C81CF
:101170003D812330310549F010C0A4E5B0E0E4E53D
:10118000F0E080818F7B8C930DC0A4E5B0E0E4E5B6
:10119000F0E0808180648C9305C081E0898302C087
:1011A00081E0898389812B960FB6F894DEBF0FBE4C
:1011B000CDBFCF91DF910895DF93CF9300D000D0C2
:1011C00000D0CDB7DEB78A837C836B8319828A8196
:1011D000282F30E03E832D838D819E8181309105C3
:1011E000A9F02D813E8122303105D1F08D819E8183
:1011F000009709F5EAE5F0E080818295869586956D
:1012000083708170EB81FC81808317C0EAE5F0E098
:101210008081881F8827881FEB81FC8180830DC017
:10122000EAE5F0E080818295869587708170EB8198
:10123000FC81808302C081E08983898126960FB674
:10124000F894DEBF0FBECDBFCF91DF910895DF933D
:10125000CF9300D000D00F92CDB7DEB78A836B83D7
:1012600019828B81882331F08B818F3F19F081E0C7
:10127000898335C08A81282F30E03D832C838C817F
:101280009D8181309105D1F02C813D812230310545
:101290002CF48C819D81009761F01FC02C813D81D1
:1012A0002230310581F08C819D818330910581F060
:1012B00014C0EAE3F0E08B81808311C0E7E3F0E043
:1012C0008B8180830CC0E4E3F0E08B81808307C0D6
:1012D000E1E3F0E08B81808302C081E08983898132
:1012E0000F900F900F900F900F90CF91DF91089576
:1012F000DF93CF93CDB7DEB728970FB6F894DEBF54
:101300000FBECDBF8A836B834C8319828A81843060
:1013100008F0F2C08B81883008F0EEC08C81882301
:1013200009F074C08A81282F30E038872F838F819D
:1013300098858130910559F12F813885223031050A
:101340002CF48F819885009769F0D8C02F8138855B
:101350002230310589F18F8198858330910509F418
:1013600040C0CCC0AAE3B0E0EAE3F0E08081482FBF
:101370008B81282F30E081E090E0022E02C0880FA0
:10138000991F0A94E2F7809584238C93B7C0A7E352
:10139000B0E0E7E3F0E08081482F8B81282F30E038
:1013A00081E090E0022E02C0880F991F0A94E2F7B4
:1013B000809584238C93A2C0A4E3B0E0E4E3F0E042
:1013C0008081482F8B81282F30E081E090E0022E31
:1013D00002C0880F991F0A94E2F7809584238C93AA
:1013E0008DC0A1E3B0E0E1E3F0E08081482F8B8184
:1013F000282F30E081E090E0022E02C0880F991F74
:101400000A94E2F7809584238C9378C08C81813094
:1014100009F06FC08A81282F30E03E832D838D81B3
:101420009E818130910549F12D813E812230310527
:101430002CF48D819E81009761F060C02D813E81EA
:101440002230310571F18D819E8183309105E9F162
:1014500055C0AAE3B0E0EAE3F0E08081482F8B8139
:10146000282F30E081E090E0022E02C0880F991F03
:101470000A94E2F7842B8C9341C0A7E3B0E0E7E342
:10148000F0E08081482F8B81282F30E081E090E0D0
:10149000022E02C0880F991F0A94E2F7842B8C93C6
:1014A0002DC0A4E3B0E0E4E3F0E08081482F8B811D
:1014B000282F30E081E090E0022E02C0880F991FB3
:1014C0000A94E2F7842B8C9319C0A1E3B0E0E1E326
:1014D000F0E08081482F8B81282F30E081E090E080
:1014E000022E02C0880F991F0A94E2F7842B8C9376
:1014F00005C081E0898302C081E0898389812896C3
:101500000FB6F894DEBF0FBECDBFCF91DF91089527
:10151000DF93CF9300D000D00F92CDB7DEB78A8390
:101520006B8319828A81282F30E03D832C838C8144
:101530009D8181309105D1F02C813D812230310592
:101540002CF48C819D81009761F01FC02C813D811E
:101550002230310581F08C819D818330910581F0AD
:1015600014C0EBE3F0E08B81808311C0E8E3F0E08E
:101570008B8180830CC0E5E3F0E08B81808307C022
:10158000E2E3F0E08B81808302C081E0898389817E
:101590000F900F900F900F900F90CF91DF910895C3
:1015A000DF93CF93CDB7DEB728970FB6F894DEBFA1
:1015B0000FBECDBF8A836B834C8319828A818430AE
:1015C00008F0F2C08B81883008F0EEC08C8188234F
:1015D00009F074C08A81282F30E038872F838F81EB
:1015E00098858130910559F12F8138852230310558
:1015F0002CF48F819885009769F0D8C02F813885A9
:101600002230310589F18F8198858330910509F465
:1016100040C0CCC0ABE3B0E0EBE3F0E08081482F0A
:101620008B81282F30E081E090E0022E02C0880FED
:10163000991F0A94E2F7809584238C93B7C0A8E39E
:10164000B0E0E8E3F0E08081482F8B81282F30E084
:1016500081E090E0022E02C0880F991F0A94E2F701
:10166000809584238C93A2C0A5E3B0E0E5E3F0E08D
:101670008081482F8B81282F30E081E090E0022E7E
:1016800002C0880F991F0A94E2F7809584238C93F7
:101690008DC0A2E3B0E0E2E3F0E08081482F8B81CF
:1016A000282F30E081E090E0022E02C0880F991FC1
:1016B0000A94E2F7809584238C9378C08C818130E2
:1016C00009F06FC08A81282F30E03E832D838D8101
:1016D0009E818130910549F12D813E812230310575
:1016E0002CF48D819E81009761F060C02D813E8138
:1016F0002230310571F18D819E8183309105E9F1B0
:1017000055C0ABE3B0E0EBE3F0E08081482F8B8184
:10171000282F30E081E090E0022E02C0880F991F50
:101720000A94E2F7842B8C9341C0A8E3B0E0E8E38D
:10173000F0E08081482F8B81282F30E081E090E01D
:10174000022E02C0880F991F0A94E2F7842B8C9313
:101750002DC0A5E3B0E0E5E3F0E08081482F8B8168
:10176000282F30E081E090E0022E02C0880F991F00
:101770000A94E2F7842B8C9319C0A2E3B0E0E2E371
:10178000F0E08081482F8B81282F30E081E090E0CD
:10179000022E02C0880F991F0A94E2F7842B8C93C3
:1017A00005C081E0898302C081E089838981289610
:1017B0000FB6F894DEBF0FBECDBFCF91DF91089575
:1017C000DF93CF9300D000D000D0CDB7DEB78A83AF
:1017D0007C836B8319828B819C81009719F481E053
:1017E00089833DC08A81282F30E03E832D838D81FF
:1017F0009E8181309105E1F02D813E8122303105BD
:101800002CF48D819E81009761F027C02D813E814F
:1018100022303105A1F08D819E8183309105B1F098
:101820001CC0E9E3F0E08081EB81FC81808317C07C
:10183000E6E3F0E08081EB81FC81808310C0E3E38C
:10184000F0E08081EB81FC81808309C0E0E3F0E07F
:101850008081EB81FC81808302C081E08983898162
:1018600026960FB6F894DEBF0FBECDBFCF91DF91A5
:101870000895DF93CF93CDB7DEB727970FB6F894CF
:10188000DEBF0FBECDBF8A836B835D834C8319821D
:101890008C819D81009719F481E089837BC08A81C6
:1018A000843008F075C08B81883008F071C08A815F
:1018B000282F30E03F832E834E815F8141305105D8
:1018C00059F18E819F818230910534F42E813F81C0
:1018D0002115310569F05EC04E815F8142305105AE
:1018E00079F18E819F818330910509F43DC052C00A
:1018F000E9E3F0E08081282F30E08B81882F90E0B1
:10190000A90102C0559547958A95E2F7CA018170F1
:10191000EC81FD8180833EC0E6E3F0E08081282FEA
:1019200030E08B81882F90E0A90102C05595479542
:101930008A95E2F7CA018170EC81FD8180832AC01B
:10194000E3E3F0E08081282F30E08B81882F90E066
:10195000A90102C0559547958A95E2F7CA018170A1
:10196000EC81FD81808316C0E0E3F0E08081282FC8
:1019700030E08B81882F90E0A90102C055954795F2
:101980008A95E2F7CA018170EC81FD81808302C0F3
:1019900081E08983898127960FB6F894DEBF0FBE58
:1019A000CDBFCF91DF910895DF93CF93CDB7DEB751
:1019B000A6E2B0E0E6E2F0E0808180688C93A7E2E6
:1019C000B0E0E7E2F0E0808180648C93A6E2B0E0D2
:1019D000E6E2F0E08081887F8C93A6E2B0E0E6E268
:1019E000F0E0808186608C93A7E2B0E0E7E2F0E06F
:1019F00080818F7D8C93A6E2B0E0E6E2F0E080810A
:101A00008F7D8C93CF91DF910895DF93CF9300D09A
:101A10000F92CDB7DEB78B83A7E2B0E0E7E2F0E04C
:101A20008081807E8C93A7E2B0E0E7E2F0E09081D5
:101A30008B81892B8C93A6E2B0E0E6E2F0E0808116
:101A400080648C93E6E2F0E0808182958F70882F2D
:101A500090E0817090700097A9F3A6E2B0E0E6E212
:101A6000F0E0808180618C93E4E2F0E080819181FC
:101A70009A83898389819A810F900F900F90CF91DB
:101A8000DF910895DF93CF93CDB7DEB76F970FB691
:101A9000F894DEBF0FBECDBFE4E3F0E08FEF8083AC
:101AA0000E94D40C0E940D0E80E690E08D8BCE013A
:101AB00048969C8B8B8B80E00E94050D9F8B8E8BB4
:101AC0008E899F89CC01A0E0B0E0BC01CD010E94CD
:101AD000A104DC01CB01BC01CD0126EF38E24CE9C9
:101AE00050E40E941702DC01CB018F87988BA98BF1
:101AF000BA8B6F85788989899A8920E030E040E245
:101B000051E40E941103DC01CB01BC01CD010E9414
:101B10004100DC01CB018C8F9D8FAE8FBF8F8D89F3
:101B2000882F90E00E94B612CE014C960E940317B7
:101B300080E090E0AAEFB4E48B879C87AD87BE87F6
:101B40006B857C858D859E8520E030E04AEF54E4EE
:101B50000E941702DC01CB018F839887A987BA877F
:101B60006F81788589859A8520E030E040E85FE3E1
:101B70000E941D0488232CF481E090E09E838D83D5
:101B80003FC06F81788589859A8520E03FEF4FE7D8
:101B900057E40E94BD0318164CF56B857C858D8536
:101BA0009E8520E030E040E251E40E941702DC0113
:101BB000CB01BC01CD010E944100DC01CB019E8321
:101BC0008D830FC088EC90E09C838B838B819C81FC
:101BD0000197F1F79C838B838D819E8101979E8372
:101BE0008D838D819E81009769F714C06F81788500
:101BF00089859A850E944100DC01CB019E838D83FB
:101C00008D819E819A83898389819A810197F1F7D9
:101C10009A8389830E94D6134ECF0F931F93DF932D
:101C2000CF93CDB7DEB7C654D0400FB6F894DEBF21
:101C30000FBECDBF82E06FEF0E94270983E062E014
:101C400041E00E94780983E061E041E00E94780968
:101C500083E060E041E00E947809FE01ED5BFF4F08
:101C600080E090E0A0E2B2E480839183A283B3831A
:101C70008E01015C1F4FFE01ED5BFF4F60817181A2
:101C80008281938120E030E04AEF54E40E94170201
:101C9000DC01CB01F80180839183A283B383FE0131
:101CA000FF96608171818281938120E030E040E87D
:101CB0005FE30E941D0488232CF481E090E09EAF36
:101CC0008DAF46C0FE01FF96608171818281938154
:101CD00020E03FEF4FE757E40E94BD03181664F57C
:101CE000FE01ED5BFF4F608171818281938120E075
:101CF00030E040E251E40E941702DC01CB01BC015C
:101D0000CD010E944100DC01CB019EAF8DAF0FC021
:101D100088EC90E09CAF8BAF8BAD9CAD0197F1F759
:101D20009CAF8BAF8DAD9EAD01979EAF8DAF8DAD4E
:101D30009EAD009769F716C0FE01FF966081718124
:101D4000828193810E944100DC01CB019EAF8DAF67
:101D50008DAD9EAD9AAF89AF89AD9AAD0197F1F780
:101D60009AAF89AF88E390E00E94961080E090E0FF
:101D7000A0E8BFE38DAB9EABAFABB8AF6DA97EA9BA
:101D80008FA998AD20E030E04AEF54E40E9417029A
:101D9000DC01CB0189AB9AABABABBCAB69A97AA92F
:101DA0008BA99CA920E030E040E85FE30E941D047D
:101DB00088232CF481E090E098AB8FA73FC069A9FD
:101DC0007AA98BA99CA920E03FEF4FE757E40E9436
:101DD000BD0318164CF56DA97EA98FA998AD20E01A
:101DE00030E040E251E40E941702DC01CB01BC016B
:101DF000CD010E944100DC01CB0198AB8FA70FC041
:101E000088EC90E09EA78DA78DA59EA50197F1F780
:101E10009EA78DA78FA598A9019798AB8FA78FA58F
:101E200098A9009769F714C069A97AA98BA99CA9F8
:101E30000E944100DC01CB0198AB8FA78FA598A928
:101E40009CA78BA78BA59CA50197F1F79CA78BA7B7
:101E50008EE090E00E94961080E090E0A0E8BFE362
:101E60008FA398A7A9A7BAA76FA178A589A59AA5B6
:101E700020E030E04AEF54E40E941702DC01CB017D
:101E80008BA39CA3ADA3BEA36BA17CA18DA19EA19E
:101E900020E030E040E85FE30E941D0488232CF43A
:101EA00081E090E09AA389A33FC06BA17CA18DA1A2
:101EB0009EA120E03FEF4FE757E40E94BD031816B4
:101EC0004CF56FA178A589A59AA520E030E040E205
:101ED00051E40E941702DC01CB01BC01CD010E943C
:101EE0004100DC01CB019AA389A30FC088EC90E0EC
:101EF00098A38F8F8F8D98A10197F1F798A38F8F5B
:101F000089A19AA101979AA389A389A19AA100976F
:101F100069F714C06BA17CA18DA19EA10E94410014
:101F2000DC01CB019AA389A389A19AA19E8F8D8FF1
:101F30008D8D9E8D0197F1F79E8F8D8F81E090E0C2
:101F40000E94961080E090E0A0E0B0E4898F9A8F24
:101F5000AB8FBC8F698D7A8D8B8D9C8D20E030E0AE
:101F60004AEF54E40E941702DC01CB018D8B9E8B5B
:101F7000AF8BB88F6D897E898F89988D20E030E096
:101F800040E85FE30E941D0488232CF481E090E088
:101F90009C8B8B8B3FC06D897E898F89988D20E0CB
:101FA0003FEF4FE757E40E94BD0318164CF5698DCB
:101FB0007A8D8B8D9C8D20E030E040E251E40E94D0
:101FC0001702DC01CB01BC01CD010E944100DC0104
:101FD000CB019C8B8B8B0FC088EC90E09A8B898B0C
:101FE00089899A890197F1F79A8B898B8B899C89CA
:101FF00001979C8B8B8B8B899C89009769F714C008
:102000006D897E898F89988D0E944100DC01CB010A
:102010009C8B8B8B8B899C89988B8F878F859889DC
:102020000197F1F7988B8F8786E090E00E949610D9
:1020300080E090E0A0E8BFE38B879C87AD87BE87F8
:102040006B857C858D859E8520E030E04AEF54E4E9
:102050000E941702DC01CB018F839887A987BA877A
:102060006F81788589859A8520E030E040E85FE3DC
:102070000E941D0488232CF481E090E09E838D83D0
:102080003FC06F81788589859A8520E03FEF4FE7D3
:1020900057E40E94BD0318164CF56B857C858D8531
:1020A0009E8520E030E040E251E40E941702DC010E
:1020B000CB01BC01CD010E944100DC01CB019E831C
:1020C0008D830FC088EC90E09C838B838B819C81F7
:1020D0000197F1F79C838B838D819E8101979E836D
:1020E0008D838D819E81009769F714C06F817885FB
:1020F00089859A850E944100DC01CB019E838D83F6
:102100008D819E819A83898389819A810197F1F7D4
:102110009A838983CA5BDF4F0FB6F894DEBF0FBE88
:10212000CDBFCF91DF911F910F910895DF93CF9392
:10213000CDB7DEB76D970FB6F894DEBF0FBECDBF3B
:102140008D8F83E062E040E00E94D00A83E061E08E
:1021500040E00E94D00A82E06D8D0E94880A83E0F0
:1021600060E041E00E94D00A80E090E0A0E0B0E4AE
:10217000898F9A8FAB8FBC8F698D7A8D8B8D9C8D5B
:1021800020E030E04AEF54E40E941702DC01CB016A
:102190008D8B9E8BAF8BB88F6D897E898F89988D43
:1021A00020E030E040E85FE30E941D0488232CF427
:1021B00081E090E09C8B8B8B3FC06D897E898F89FD
:1021C000988D20E03FEF4FE757E40E94BD031816BB
:1021D0004CF5698D7A8D8B8D9C8D20E030E040E24E
:1021E00051E40E941702DC01CB01BC01CD010E9429
:1021F0004100DC01CB019C8B8B8B0FC088EC90E005
:102200009A8B898B89899A890197F1F79A8B898BA7
:102210008B899C8901979C8B8B8B8B899C890097E0
:1022200069F714C06D897E898F89988D0E9441005D
:10223000DC01CB019C8B8B8B8B899C89988B8F8746
:102240008F8598890197F1F7988B8F8783E060E0FD
:1022500040E00E94D00A80E090E0A0E0B0E48B87EC
:102260009C87AD87BE876B857C858D859E8520E0AC
:1022700030E04AEF54E40E941702DC01CB018F8367
:102280009887A987BA876F81788589859A8520E0A4
:1022900030E040E85FE30E941D0488232CF481E0D5
:1022A00090E09E838D833FC06F81788589859A8574
:1022B00020E03FEF4FE757E40E94BD0318164CF5AE
:1022C0006B857C858D859E8520E030E040E251E481
:1022D0000E941702DC01CB01BC01CD010E9441002C
:1022E000DC01CB019E838D830FC088EC90E09C8342
:1022F0008B838B819C810197F1F79C838B838D81EC
:102300009E8101979E838D838D819E81009769F7C1
:1023100014C06F81788589859A850E944100DC010F
:10232000CB019E838D838D819E819A838983898150
:102330009A810197F1F79A8389836D960FB6F89485
:10234000DEBF0FBECDBFCF91DF910895DF93CF9356
:10235000CDB7DEB76D970FB6F894DEBF0FBECDBF19
:102360008D8F83E062E041E00E94D00A83E061E06B
:1023700040E00E94D00A82E06D8D0E94880A83E0CE
:1023800060E041E00E94D00A80E090E0A0E0B0E48C
:10239000898F9A8FAB8FBC8F698D7A8D8B8D9C8D39
:1023A00020E030E04AEF54E40E941702DC01CB0148
:1023B0008D8B9E8BAF8BB88F6D897E898F89988D21
:1023C00020E030E040E85FE30E941D0488232CF405
:1023D00081E090E09C8B8B8B3FC06D897E898F89DB
:1023E000988D20E03FEF4FE757E40E94BD03181699
:1023F0004CF5698D7A8D8B8D9C8D20E030E040E22C
:1024000051E40E941702DC01CB01BC01CD010E9406
:102410004100DC01CB019C8B8B8B0FC088EC90E0E2
:102420009A8B898B89899A890197F1F79A8B898B85
:102430008B899C8901979C8B8B8B8B899C890097BE
:1024400069F714C06D897E898F89988D0E9441003B
:10245000DC01CB019C8B8B8B8B899C89988B8F8724
:102460008F8598890197F1F7988B8F8783E060E0DB
:1024700040E00E94D00A80E090E0A0E0B0E48B87CA
:102480009C87AD87BE876B857C858D859E8520E08A
:1024900030E04AEF54E40E941702DC01CB018F8345
:1024A0009887A987BA876F81788589859A8520E082
:1024B00030E040E85FE30E941D0488232CF481E0B3
:1024C00090E09E838D833FC06F81788589859A8552
:1024D00020E03FEF4FE757E40E94BD0318164CF58C
:1024E0006B857C858D859E8520E030E040E251E45F
:1024F0000E941702DC01CB01BC01CD010E9441000A
:10250000DC01CB019E838D830FC088EC90E09C831F
:102510008B838B819C810197F1F79C838B838D81C9
:102520009E8101979E838D838D819E81009769F79F
:1025300014C06F81788589859A850E944100DC01ED
:10254000CB019E838D838D819E819A83898389812E
:102550009A810197F1F79A8389836D960FB6F89463
:10256000DEBF0FBECDBFCF91DF910895DF93CF9334
:10257000CDB7DEB76E970FB6F894DEBF0FBECDBFF6
:102580009E8F8D8F04C183E062E041E00E94D00AFB
:1025900083E061E040E00E94D00AED8DFE8D9081E5
:1025A00082E0692F0E94880A83E060E041E00E9497
:1025B000D00A80E090E0A0E0B0E4898F9A8FAB8FE2
:1025C000BC8F698D7A8D8B8D9C8D20E030E04AEF39
:1025D00054E40E941702DC01CB018D8B9E8BAF8BE4
:1025E000B88F6D897E898F89988D20E030E040E832
:1025F0005FE30E941D0488232CF481E090E09C8B13
:102600008B8B3FC06D897E898F89988D20E03FEF4D
:102610004FE757E40E94BD0318164CF5698D7A8D7B
:102620008B8D9C8D20E030E040E251E40E94170247
:10263000DC01CB01BC01CD010E944100DC01CB01DA
:102640009C8B8B8B0FC088EC90E09A8B898B89894F
:102650009A890197F1F79A8B898B8B899C890197CD
:102660009C8B8B8B8B899C89009769F714C06D8933
:102670007E898F89988D0E944100DC01CB019C8B63
:102680008B8B8B899C89988B8F878F8598890197F5
:10269000F1F7988B8F8783E060E040E00E94D00ADA
:1026A00080E090E0A8E4B2E48B879C87AD87BE878A
:1026B0006B857C858D859E8520E030E04AEF54E473
:1026C0000E941702DC01CB018F839887A987BA8704
:1026D0006F81788589859A8520E030E040E85FE366
:1026E0000E941D0488232CF481E090E09E838D835A
:1026F0003FC06F81788589859A8520E03FEF4FE75D
:1027000057E40E94BD0318164CF56B857C858D85BA
:102710009E8520E030E040E251E40E941702DC0197
:10272000CB01BC01CD010E944100DC01CB019E83A5
:102730008D830FC088EC90E09C838B838B819C8180
:102740000197F1F79C838B838D819E8101979E83F6
:102750008D838D819E81009769F714C06F81788584
:1027600089859A850E944100DC01CB019E838D837F
:102770008D819E819A83898389819A810197F1F75E
:102780009A8389838D8D9E8D01969E8F8D8FED8D81
:10279000FE8D8081882309F0F6CE6E960FB6F894F0
:1027A000DEBF0FBECDBFCF91DF910895DF93CF93F2
:1027B000CDB7DEB76C970FB6F894DEBF0FBECDBFB6
:1027C00083E062E040E00E94D00A83E061E040E004
:1027D0000E94D00A82E061E00E94880A83E060E003
:1027E00041E00E94D00A80E090E0A0E0B0E4898F50
:1027F0009A8FAB8FBC8F698D7A8D8B8D9C8D20E0ED
:1028000030E04AEF54E40E941702DC01CB018D8BCB
:102810009E8BAF8BB88F6D897E898F89988D20E0D4
:1028200030E040E85FE30E941D0488232CF481E03F
:1028300090E09C8B8B8B3FC06D897E898F89988DB2
:1028400020E03FEF4FE757E40E94BD0318164CF518
:10285000698D7A8D8B8D9C8D20E030E040E251E4D3
:102860000E941702DC01CB01BC01CD010E94410096
:10287000DC01CB019C8B8B8B0FC088EC90E09A8B9A
:10288000898B89899A890197F1F79A8B898B8B8932
:102890009C8901979C8B8B8B8B899C89009769F70E
:1028A00014C06D897E898F89988D0E944100DC015A
:1028B000CB019C8B8B8B8B899C89988B8F878F8589
:1028C00098890197F1F7988B8F8783E060E040E06B
:1028D0000E94D00A80E090E0A0E0B0E48B879C8763
:1028E000AD87BE876B857C858D859E8520E030E039
:1028F0004AEF54E40E941702DC01CB018F839887D2
:10290000A987BA876F81788589859A8520E030E02C
:1029100040E85FE30E941D0488232CF481E090E0EE
:102920009E838D833FC06F81788589859A8520E05D
:102930003FEF4FE757E40E94BD0318164CF56B8537
:102940007C858D859E8520E030E040E251E40E9448
:102950001702DC01CB01BC01CD010E944100DC016A
:10296000CB019E838D830FC088EC90E09C838B838A
:102970008B819C810197F1F79C838B838D819E8154
:1029800001979E838D838D819E81009769F714C086
:102990006F81788589859A850E944100DC01CB0191
:1029A0009E838D838D819E819A83898389819A817B
:1029B0000197F1F79A8389836C960FB6F894DEBF7E
:1029C0000FBECDBFCF91DF910895DF93CF93CDB7E9
:1029D000DEB76C970FB6F894DEBF0FBECDBF83E0B5
:1029E00062E040E00E94D00A83E061E040E00E94A3
:1029F000D00A82E068E10E94880A83E060E041E05A
:102A00000E94D00A80E090E0A0E0B0E4898F9A8F25
:102A1000AB8FBC8F698D7A8D8B8D9C8D20E030E0E3
:102A20004AEF54E40E941702DC01CB018D8B9E8B90
:102A3000AF8BB88F6D897E898F89988D20E030E0CB
:102A400040E85FE30E941D0488232CF481E090E0BD
:102A50009C8B8B8B3FC06D897E898F89988D20E000
:102A60003FEF4FE757E40E94BD0318164CF5698D00
:102A70007A8D8B8D9C8D20E030E040E251E40E9405
:102A80001702DC01CB01BC01CD010E944100DC0139
:102A9000CB019C8B8B8B0FC088EC90E09A8B898B41
:102AA00089899A890197F1F79A8B898B8B899C89FF
:102AB00001979C8B8B8B8B899C89009769F714C03D
:102AC0006D897E898F89988D0E944100DC01CB0140
:102AD0009C8B8B8B8B899C89988B8F878F85988912
:102AE0000197F1F7988B8F8783E060E040E00E94C8
:102AF000D00A80E090E0A0E0B0E48B879C87AD87AF
:102B0000BE876B857C858D859E8520E030E04AEF11
:102B100054E40E941702DC01CB018F839887A987B8
:102B2000BA876F81788589859A8520E030E040E812
:102B30005FE30E941D0488232CF481E090E09E83D3
:102B40008D833FC06F81788589859A8520E03FEF2E
:102B50004FE757E40E94BD0318164CF56B857C8542
:102B60008D859E8520E030E040E251E40E9417020E
:102B7000DC01CB01BC01CD010E944100DC01CB0195
:102B80009E838D830FC088EC90E09C838B838B8128
:102B90009C810197F1F79C838B838D819E810197A6
:102BA0009E838D838D819E81009769F714C06F810C
:102BB000788589859A850E944100DC01CB019E833E
:102BC0008D838D819E819A83898389819A810197E2
:102BD000F1F79A8389836C960FB6F894DEBF0FBE27
:102BE000CDBFCF91DF910895DF93CF93CDB7DEB7FF
:102BF0006C970FB6F894DEBF0FBECDBF83E062E0E6
:102C000040E00E94D00A83E061E040E00E94D00AE8
:102C100082E06CE10E94880A83E060E041E00E946B
:102C2000D00A80E090E0A0E0B0E4898F9A8FAB8F6B
:102C3000BC8F698D7A8D8B8D9C8D20E030E04AEFC2
:102C400054E40E941702DC01CB018D8B9E8BAF8B6D
:102C5000B88F6D897E898F89988D20E030E040E8BB
:102C60005FE30E941D0488232CF481E090E09C8B9C
:102C70008B8B3FC06D897E898F89988D20E03FEFD7
:102C80004FE757E40E94BD0318164CF5698D7A8D05
:102C90008B8D9C8D20E030E040E251E40E941702D1
:102CA000DC01CB01BC01CD010E944100DC01CB0164
:102CB0009C8B8B8B0FC088EC90E09A8B898B8989D9
:102CC0009A890197F1F79A8B898B8B899C89019757
:102CD0009C8B8B8B8B899C89009769F714C06D89BD
:102CE0007E898F89988D0E944100DC01CB019C8BED
:102CF0008B8B8B899C89988B8F878F85988901977F
:102D0000F1F7988B8F8783E060E040E00E94D00A63
:102D100080E090E0A0E0B0E48B879C87AD87BE8721
:102D20006B857C858D859E8520E030E04AEF54E4FC
:102D30000E941702DC01CB018F839887A987BA878D
:102D40006F81788589859A8520E030E040E85FE3EF
:102D50000E941D0488232CF481E090E09E838D83E3
:102D60003FC06F81788589859A8520E03FEF4FE7E6
:102D700057E40E94BD0318164CF56B857C858D8544
:102D80009E8520E030E040E251E40E941702DC0121
:102D9000CB01BC01CD010E944100DC01CB019E832F
:102DA0008D830FC088EC90E09C838B838B819C810A
:102DB0000197F1F79C838B838D819E8101979E8380
:102DC0008D838D819E81009769F714C06F8178850E
:102DD00089859A850E944100DC01CB019E838D8309
:102DE0008D819E819A83898389819A810197F1F7E8
:102DF0009A8389836C960FB6F894DEBF0FBECDBF61
:102E0000CF91DF9108950F931F93DF93CF93CDB7A9
:102E1000DEB761970FB6F894DEBF0FBECDBF998BBA
:102E2000888B8AE0FE013696DF01982F1D929A95D5
:102E3000E9F780E38E83E889F98980819181A28115
:102E4000B38189839A83AB83BC831D824FC08D81FC
:102E5000082F112707FD109589819A81AB81BC81CC
:102E60002AE030E040E050E0BC01CD010E949A171A
:102E7000DC01CB01282FCE010696FC01E00FF11FEB
:102E8000208389819A81AB81BC812AE030E040E0D7
:102E900050E0BC01CD010E949A17DA01C901898373
:102EA0009A83AB83BC8369817A818B819C810E94E8
:102EB000A104DC01CB01BC01CD010E94F317DC01B0
:102EC000CB01BC01CD010E944100DC01CB01898313
:102ED0009A83AB83BC8389819A81AB81BC81009743
:102EE000A105B105C9F08D818F5F8D838D818A30F9
:102EF0000CF4ADCF11C08D81282F332727FD3095DD
:102F0000CE010696FC01E20FF31F8081805D0E94D6
:102F1000A6118D8181508D838D81882364F7619600
:102F20000FB6F894DEBF0FBECDBFCF91DF911F91DA
:102F30000F910895A1E21A2EAA1BBB1BFD010DC023
:102F4000AA1FBB1FEE1FFF1FA217B307E407F50759
:102F500020F0A21BB30BE40BF50B661F771F881F35
:102F6000991F1A9469F760957095809590959B01CB
:102F7000AC01BD01CF0108952F923F924F925F9215
:102F80006F927F928F929F92AF92BF92CF92DF9279
:102F9000EF92FF920F931F93CF93DF93CDB7DEB7DE
:102FA000CA1BDB0B0FB6F894DEBF0FBECDBF099472
:102FB0002A88398848885F846E847D848C849B84C9
:102FC000AA84B984C884DF80EE80FD800C811B81D7
:102FD000AA81B981CE0FD11D0FB6F894DEBF0FBE06
:102FE000CDBFED0108953BD080F09F3740F49111A3
:102FF0000EF04DC060E070E080E89FEB089526F48D
:103000001B16611D711D811D01C01BC0882371F439
:10301000772321F09850872B762F07C0662311F471
:1030200099270DC09051862B70E060E02AF09A95A8
:10303000660F771F881FDAF7880F9695879597F99F
:1030400008959F3F31F0915020F4879577956795CB
:10305000B795880F911D9695879597F9089525D076
:10306000A0F0BEE7B91788F4BB279F3860F41616A6
:10307000B11D672F782F8827985FF7CF86957795B2
:103080006795B11D93959639C8F30895E894BB27C9
:1030900066277727CB0197F9089557FD9058440F7D
:1030A000551F59F05F3F71F04795880F97FB991FA7
:1030B00061F09F3F79F08795089512161306140664
:1030C000551FF2CF4695F1DF08C0161617061806F1
:1030D000991FF1CF86957105610508940895F894BC
:0230E000FFCF20
:1030E20054454D50203D200000000000000000002B
:1030F200000102020303030304040404040404049D
:10310200050505050505050505050505050505056D
:10311200060606060606060606060606060606064D
:10312200060606060606060606060606060606063D
:10313200070707070707070707070707070707071D
:10314200070707070707070707070707070707070D
:1031520007070707070707070707070707070707FD
:1031620007070707070707070707070707070707ED
:1031720008080808080808080808080808080808CD
:1031820008080808080808080808080808080808BD
:1031920008080808080808080808080808080808AD
:1031A200080808080808080808080808080808089D
:1031B200080808080808080808080808080808088D
:1031C200080808080808080808080808080808087D
:1031D200080808080808080808080808080808086D
:1031E200080808080808080808080808080808085D
:00000001FF
