:100000000C942A000C943F000C943F000C943F0089
:100010000C943F000C943F000C943F000C943F0064
:100020000C943F000C943F000C943F000C943F0054
:100030000C943F000C943F000C943F000C943F0044
:100040000C943F000C943F000C943F000C943F0034
:100050000C943F0011241FBECFE5D8E0DEBFCDBF1A
:1000600010E0A0E6B0E0EEECF1E002C005900D92E9
:10007000AA36B107D9F70E9441000C94E5000C9410
:100080000000DF93CF93CDB7DEB76B970FB6F89430
:10009000DEBF0FBECDBFEAE3F0E08FEF8083E4E385
:1000A000F0E08FEF8083CE010D96988F8F8BE0E686
:1000B000F0E0FA8FE98FFAE0FB8FE98DFA8D00808E
:1000C000898D9A8D01969A8F898FEF89F88D00829C
:1000D0008F89988D0196988F8F8B9B8D91509B8FD8
:1000E000EB8DEE2351F71C861B8668C01A86198695
:1000F0005AC01D821E821F82188643C01C821B822A
:1001000014C0E5E3F0E08EEF8083ABE3B0E0298537
:100110003A85CE010D96FC01E20FF31F80818C938E
:100120008B819C8101969C838B838B819C818A30FF
:1001300091053CF31A82198214C0E5E3F0E08DEFDB
:100140008083ABE3B0E02B853C85CE010D96FC01AE
:10015000E20FF31F80818C9389819A8101969A83A3
:10016000898389819A81843691053CF38D819E81B2
:10017000AF81B8850196A11DB11D8D839E83AF838C
:10018000B8878D819E81AF81B8858E35F1E09F075C
:10019000F0E0AF07F0E0BF070CF4B0CF89859A8597
:1001A00001969A87898789859A858A3091050CF40A
:1001B000A0CF8B859C8501969C878B878B859C85A2
:0E01C0008A3091050CF492CF8ECFF894FFCFC9
:0A01CE003F065B4F666D7D077F6FF3
:00000001FF
