:100000000C942A000C9434000C9434000C943400AA
:100010000C9434000C9434000C9434000C94340090
:100020000C9434000C9434000C9434000C94340080
:100030000C9434000C9434000C9434000C94340070
:100040000C9434000C9434000C9434000C94340060
:100050000C94340011241FBECFE5D8E0DEBFCDBF25
:100060000E94C4030C94CB030C940000DF93CF9345
:1000700000D000D00F92CDB7DEB78A836B83198290
:100080008A81282F30E03D832C838C819D818130B3
:100090009105D1F02C813D81223031052CF48C81E9
:1000A0009D81009761F01FC02C813D812230310578
:1000B00081F08C819D818330910581F014C0EAE349
:1000C000F0E08B81808311C0E7E3F0E08B818083D7
:1000D0000CC0E4E3F0E08B81808307C0E1E3F0E053
:1000E0008B81808302C081E089838B81882319F40E
:1000F0008B818F3F11F081E0898389810F900F9070
:100100000F900F900F90CF91DF910895DF93CF93D1
:10011000CDB7DEB728970FB6F894DEBF0FBECDBFC0
:100120008A836B834C8319828A81843008F0F2C001
:100130008B81883008F0EEC08C81882309F074C070
:100140008A81282F30E038872F838F8198858130EE
:10015000910559F12F813885223031052CF48F819A
:100160009885009769F0D8C02F81388522303105F5
:1001700089F18F8198858330910509F440C0CCC006
:10018000AAE3B0E0EAE3F0E08081482F8B81282FDA
:1001900030E081E090E0022E02C0880F991F0A949F
:1001A000E2F7809584238C93B7C0A7E3B0E0E7E340
:1001B000F0E08081482F8B81282F30E081E090E0B3
:1001C000022E02C0880F991F0A94E2F780958423BB
:1001D0008C93A2C0A4E3B0E0E4E3F0E08081482F78
:1001E0008B81282F30E081E090E0022E02C0880F42
:1001F000991F0A94E2F7809584238C938DC0A1E324
:10020000B0E0E1E3F0E08081482F8B81282F30E0DF
:1002100081E090E0022E02C0880F991F0A94E2F755
:10022000809584238C9378C08C81813009F06FC0D5
:100230008A81282F30E03E832D838D819E818130FD
:10024000910549F12D813E81223031052CF48D81BB
:100250009E81009761F060C02D813E812230310582
:1002600071F18D819E8183309105E9F155C0AAE33A
:10027000B0E0EAE3F0E08081482F8B81282F30E066
:1002800081E090E0022E02C0880F991F0A94E2F7E5
:10029000842B8C9341C0A7E3B0E0E7E3F0E08081DA
:1002A000482F8B81282F30E081E090E0022E02C0A1
:1002B000880F991F0A94E2F7842B8C932DC0A4E336
:1002C000B0E0E4E3F0E08081482F8B81282F30E01C
:1002D00081E090E0022E02C0880F991F0A94E2F795
:1002E000842B8C9319C0A1E3B0E0E1E3F0E08081BE
:1002F000482F8B81282F30E081E090E0022E02C051
:10030000880F991F0A94E2F7842B8C9305C081E033
:10031000898302C081E08983898128960FB6F89489
:10032000DEBF0FBECDBFCF91DF910895DF93CF9396
:1003300000D000D00F92CDB7DEB78A836B831982CD
:100340008B81882319F08B818F3FB1F58A81282F0B
:1003500030E03D832C838C819D8181309105D1F0EB
:100360002C813D81223031052CF48C819D810097B8
:1003700061F01FC02C813D812230310581F08C81DC
:100380009D818330910581F014C0EBE3F0E08B8117
:10039000808314C0E8E3F0E08B8180830FC0E5E345
:1003A000F0E08B8180830AC0E2E3F0E08B81808300
:1003B00005C081E0898302C081E0898389810F9033
:1003C0000F900F900F900F90CF91DF910895DF93D2
:1003D000CF93CDB7DEB728970FB6F894DEBF0FBE28
:1003E000CDBF8A836B834C8319828A81843008F065
:1003F000F2C08B81883008F0EEC08C81882309F030
:1004000074C08A81282F30E038872F838F819885A8
:100410008130910559F12F813885223031052CF436
:100420008F819885009769F0D8C02F813885223058
:10043000310589F18F8198858330910509F440C099
:10044000CCC0ABE3B0E0EBE3F0E08081482F8B81E0
:10045000282F30E081E090E0022E02C0880F991F23
:100460000A94E2F7809584238C93B7C0A8E3B0E0A8
:10047000E8E3F0E08081482F8B81282F30E081E095
:1004800090E0022E02C0880F991F0A94E2F780952F
:1004900084238C93A2C0A5E3B0E0E5E3F0E0808183
:1004A000482F8B81282F30E081E090E0022E02C09F
:1004B000880F991F0A94E2F7809584238C938DC04E
:1004C000A2E3B0E0E2E3F0E08081482F8B81282FA7
:1004D00030E081E090E0022E02C0880F991F0A945C
:1004E000E2F7809584238C9378C08C81813009F069
:1004F0006FC08A81282F30E03E832D838D819E81BD
:100500008130910549F12D813E81223031052CF455
:100510008D819E81009761F060C02D813E812230E7
:10052000310571F18D819E8183309105E9F155C0CE
:10053000ABE3B0E0EBE3F0E08081482F8B81282F24
:1005400030E081E090E0022E02C0880F991F0A94EB
:10055000E2F7842B8C9341C0A8E3B0E0E8E3F0E03D
:100560008081482F8B81282F30E081E090E0022E9F
:1005700002C0880F991F0A94E2F7842B8C932DC038
:10058000A5E3B0E0E5E3F0E08081482F8B81282FE0
:1005900030E081E090E0022E02C0880F991F0A949B
:1005A000E2F7842B8C9319C0A2E3B0E0E2E3F0E021
:1005B0008081482F8B81282F30E081E090E0022E4F
:1005C00002C0880F991F0A94E2F7842B8C9305C010
:1005D00081E0898302C081E08983898128960FB6F2
:1005E000F894DEBF0FBECDBFCF91DF910895DF93AA
:1005F000CF9300D000D000D0CDB7DEB78A837C8304
:100600006B8319828B819C81009719F481E0898327
:1006100034C08A81282F30E03E832D838D819E81D6
:1006200081309105C9F02D813E81223031052CF4B5
:100630008D819E81009761F01EC02D813E81223008
:10064000310579F08D819E818330910579F013C059
:10065000EB81FC81108211C0EB81FC8181E0808301
:100660000CC0EB81FC8182E0808307C0EB81FC81C0
:1006700083E0808302C081E08983898126960FB65A
:10068000F894DEBF0FBECDBFCF91DF910895DF9309
:10069000CF93CDB7DEB727970FB6F894DEBF0FBE66
:1006A000CDBF8A836B835D834C8319828C819D814E
:1006B000009719F481E089835DC08A81843008F055
:1006C00057C08B81883008F053C08A81282F30E0D2
:1006D0003F832E838E819F8181309105C9F02E81C9
:1006E0003F81223031052CF48E819F81009761F08B
:1006F00041C02E813F8122303105D1F08E819F8112
:100700008330910529F136C0EC81FD81108232C021
:100710008B81282F30E081E090E0022E02C0959579
:1007200087950A94E2F78170EC81FD81808322C075
:100730008B81282F30E082E090E0022E02C0959558
:1007400087950A94E2F78170EC81FD81808312C065
:100750008B81282F30E083E090E0022E02C0959537
:1007600087950A94E2F78170EC81FD81808302C055
:1007700081E08983898127960FB6F894DEBF0FBE8A
:10078000CDBFCF91DF910895DF93CF93CDB7DEB783
:0A079000CF91DF910895F894FFCF98
:00000001FF
