:100000000C942A000C9434000C9434000C943400AA
:100010000C9434000C9434000C9434000C94340090
:100020000C9434000C9434000C9434000C94340080
:100030000C9434000C9434000C9434000C94340070
:100040000C9434000C9434000C9434000C94340060
:100050000C94340011241FBECFE5D8E0DEBFCDBF25
:100060000E948C080C9491080C940000DF93CF93AD
:1000700000D000D00F92CDB7DEB78A836B83198290
:100080008A81282F30E03D832C838C819D818130B3
:100090009105D1F02C813D81223031052CF48C81E9
:1000A0009D81009761F01FC02C813D812230310578
:1000B00081F08C819D818330910581F014C0EAE349
:1000C000F0E08B81808311C0E7E3F0E08B818083D7
:1000D0000CC0E4E3F0E08B81808307C0E1E3F0E053
:1000E0008B81808302C081E0898389810F900F908A
:1000F0000F900F900F90CF91DF910895DF93CF93E2
:1001000000D000D00F92CDB7DEB78A836B831982FF
:100110008A81282F30E03D832C838C819D81813022
:100120009105D1F02C813D81223031052CF48C8158
:100130009D81009761F01FC02C813D8122303105E7
:1001400081F08C819D818330910581F014C0EBE3B7
:10015000F0E08B81808311C0E8E3F0E08B81808345
:100160000CC0E5E3F0E08B81808307C0E2E3F0E0C0
:100170008B81808302C081E0898389810F900F90F9
:100180000F900F900F90CF91DF910895DF93CF9351
:1001900000D000D000D0CDB7DEB78A837C836B83DC
:1001A00019828A81282F30E03E832D838D819E81A4
:1001B00081309105E1F02D813E81223031052CF412
:1001C0008D819E81009761F027C02D813E81223074
:1001D0003105A1F08D819E8183309105B1F01CC065
:1001E000E9E3F0E08081EB81FC81808317C0E6E3E6
:1001F000F0E08081EB81FC81808310C0E3E3F0E0DC
:100200008081EB81FC81808309C0E0E3F0E08081A4
:10021000EB81FC81808302C081E0898389812696FD
:100220000FB6F894DEBF0FBECDBFCF91DF9108951A
:10023000DF93CF93CDB7DEB728970FB6F894DEBF24
:100240000FBECDBF8A836B834C8319828B8188302C
:1002500008F0F4C08C81882309F077C08A81282FA8
:1002600030E038872F838F8198858130910559F14F
:100270002F813885223031052CF48F8198850097A5
:1002800069F060C02F8138852230310589F18F8176
:1002900098858330910509F440C054C0AAE3B0E0CA
:1002A000EAE3F0E08081482F8B81282F30E081E065
:1002B00090E0022E02C0880F991F0A94E2F7809501
:1002C00084238C93BDC0A7E3B0E0E7E3F0E0808136
:1002D000482F8B81282F30E081E090E0022E02C071
:1002E000880F991F0A94E2F7809584238C93A8C005
:1002F000A4E3B0E0E4E3F0E08081482F8B81282F75
:1003000030E081E090E0022E02C0880F991F0A942D
:10031000E2F7809584238C9393C0A1E3B0E0E1E3FE
:10032000F0E08081482F8B81282F30E081E090E041
:10033000022E02C0880F991F0A94E2F78095842349
:100340008C937EC081E089837BC08C81813009F0F1
:1003500072C08A81282F30E03E832D838D819E815B
:100360008130910549F12D813E81223031052CF4F7
:100370008D819E81009761F05BC02D813E8122308E
:10038000310571F18D819E8183309105E9F150C075
:10039000AAE3B0E0EAE3F0E08081482F8B81282FC8
:1003A00030E081E090E0022E02C0880F991F0A948D
:1003B000E2F7842B8C9344C0A7E3B0E0E7E3F0E0DE
:1003C0008081482F8B81282F30E081E090E0022E41
:1003D00002C0880F991F0A94E2F7842B8C9330C0D7
:1003E000A4E3B0E0E4E3F0E08081482F8B81282F84
:1003F00030E081E090E0022E02C0880F991F0A943D
:10040000E2F7842B8C931CC0A1E3B0E0E1E3F0E0C1
:100410008081482F8B81282F30E081E090E0022EF0
:1004200002C0880F991F0A94E2F7842B8C9308C0AE
:1004300081E0898305C081E0898302C081E08983EE
:10044000898128960FB6F894DEBF0FBECDBFCF913D
:10045000DF910895DF93CF93CDB7DEB728970FB61E
:10046000F894DEBF0FBECDBF8A836B834C831982A5
:100470008B81883008F0F4C08C81882309F077C024
:100480008A81282F30E038872F838F8198858130AB
:10049000910559F12F813885223031052CF48F8157
:1004A0009885009769F060C02F813885223031052A
:1004B00089F18F8198858330910509F440C054C03B
:1004C000ABE3B0E0EBE3F0E08081482F8B81282F95
:1004D00030E081E090E0022E02C0880F991F0A945C
:1004E000E2F7809584238C93BDC0A8E3B0E0E8E3F5
:1004F000F0E08081482F8B81282F30E081E090E070
:10050000022E02C0880F991F0A94E2F78095842377
:100510008C93A8C0A5E3B0E0E5E3F0E08081482F2C
:100520008B81282F30E081E090E0022E02C0880FFE
:10053000991F0A94E2F7809584238C9393C0A2E3D9
:10054000B0E0E2E3F0E08081482F8B81282F30E09B
:1005500081E090E0022E02C0880F991F0A94E2F712
:10056000809584238C937EC081E089837BC08C81BD
:10057000813009F072C08A81282F30E03E832D83BC
:100580008D819E818130910549F12D813E812230FE
:1005900031052CF48D819E81009761F05BC02D8127
:1005A0003E812230310571F18D819E81833091052C
:1005B000E9F150C0ABE3B0E0EBE3F0E08081482F1D
:1005C0008B81282F30E081E090E0022E02C0880F5E
:1005D000991F0A94E2F7842B8C9344C0A8E3B0E0FF
:1005E000E8E3F0E08081482F8B81282F30E081E024
:1005F00090E0022E02C0880F991F0A94E2F7842B24
:100600008C9330C0A5E3B0E0E5E3F0E08081482FB3
:100610008B81282F30E081E090E0022E02C0880F0D
:10062000991F0A94E2F7842B8C931CC0A2E3B0E0DC
:10063000E2E3F0E08081482F8B81282F30E081E0D9
:1006400090E0022E02C0880F991F0A94E2F7842BD3
:100650008C9308C081E0898305C081E0898302C052
:1006600081E08983898128960FB6F894DEBF0FBE9A
:10067000CDBFCF91DF910895DF93CF93CDB7DEB794
:1006800027970FB6F894DEBF0FBECDBF8A836B836A
:100690005D834C8319828B81883008F074C08A8115
:1006A000282F30E03F832E834E815F8141305105FA
:1006B00059F18E819F818230910534F42E813F81E2
:1006C0002115310569F05CC04E815F8142305105D2
:1006D00079F18E819F818330910509F43DC050C02E
:1006E000E9E3F0E08081282F30E08B81882F90E0D3
:1006F000A90102C0559547958A95E2F7CA01817014
:10070000EC81FD81808341C0E6E3F0E08081282F09
:1007100030E08B81882F90E0A90102C05595479564
:100720008A95E2F7CA018170EC81FD8180832DC03A
:10073000E3E3F0E08081282F30E08B81882F90E088
:10074000A90102C0559547958A95E2F7CA018170C3
:10075000EC81FD81808319C0E0E3F0E08081282FE7
:1007600030E08B81882F90E0A90102C05595479514
:100770008A95E2F7CA018170EC81FD81808305C012
:1007800081E0898302C081E08983898127960FB641
:10079000F894DEBF0FBECDBFCF91DF910895DF93F8
:1007A000CF9300D000D00F92CDB7DEB78A836B8392
:1007B00019828B81883008F072C08A81282F30E03E
:1007C0003D832C838C819D818130910549F12C8161
:1007D0003D81223031052CF48C819D81009761F0A0
:1007E0005BC02C813D812230310571F18C819D816E
:1007F00083309105E9F150C0ABE3B0E0EBE3F0E00A
:100800008081482F8B81282F30E081E090E0022EFC
:1008100002C0880F991F0A94E2F784278C9341C085
:10082000A8E3B0E0E8E3F0E08081482F8B81282F37
:1008300030E081E090E0022E02C0880F991F0A94F8
:10084000E2F784278C932DC0A5E3B0E0E5E3F0E068
:100850008081482F8B81282F30E081E090E0022EAC
:1008600002C0880F991F0A94E2F784278C9319C05D
:10087000A2E3B0E0E2E3F0E08081482F8B81282FF3
:1008800030E081E090E0022E02C0880F991F0A94A8
:10089000E2F784278C9305C081E0898302C081E060
:1008A000898389810F900F900F900F900F90CF91B7
:1008B000DF910895DF93CF93CDB7DEB7AFE5B0E01A
:1008C000EFE5F0E0808180688C93CF91DF9108950F
:1008D000DF93CF93CDB7DEB7AFE5B0E0EFE5F0E063
:1008E00080818F778C93CF91DF910895DF93CF93A1
:1008F0000F92CDB7DEB789838981882371F4A3E590
:10090000B0E0E3E5F0E08081877B8C93A3E5B0E085
:10091000E3E5F0E080818C9330C089818130E9F497
:10092000AFE4B0E0EFE4F0E080818C7F8C93AEE444
:10093000B0E0EEE4F0E08081877E8C93AFE4B0E03D
:10094000EFE4F0E0808182608C93AEE4B0E0EEE40E
:10095000F0E0808188618C9310C08981823069F4D5
:10096000A5E4B0E0E5E4F0E08081877B8C93A5E42A
:10097000B0E0E5E4F0E080818C930F90CF91DF91BF
:100980000895DF93CF930F92CDB7DEB78983898126
:10099000882321F4E2E5F0E010820EC089818130E5
:1009A00029F4ECE4F0E01182108206C089818230E3
:1009B00019F4E4E4F0E010820F90CF91DF910895F4
:1009C000DF93CF9300D00F92CDB7DEB78B831A821F
:1009D00019828B81882341F4E2E5F0E08081882F41
:1009E00090E09A83898314C08B81813039F4ECE4E0
:1009F000F0E0808191819A8389830AC08B81823063
:100A000039F4E4E4F0E08081882F90E09A838983D0
:100A100089819A810F900F900F90CF91DF91089567
:100A2000DF93CF9300D0CDB7DEB789836A83898106
:100A3000882381F4A3E5B0E0E3E5F0E08081887FDE
:100A40008C93A3E5B0E0E3E5F0E090818A81892B07
:100A50008C9325C08981813081F4AEE4B0E0EEE46E
:100A6000F0E08081887F8C93AEE4B0E0EEE4F0E0CB
:100A700090818A81892B8C9312C08981823079F48C
:100A8000A5E4B0E0E5E4F0E08081887F8C93A5E404
:100A9000B0E0E5E4F0E090818A81892B8C930F909F
:100AA0000F90CF91DF910895DF93CF93CDB7DEB74D
:100AB00063970FB6F894DEBF0FBECDBF89836A83FC
:100AC0004B838981882309F06BC081E063E041E0BA
:100AD0000E9418018A81823069F58B81282F30E0CD
:100AE0003B8B2A8B8A899B890097A9F02A893B89AD
:100AF0002130310509F0DEC1A3E5B0E0E3E5F0E027
:100B000080818F7C8C93A3E5B0E0E3E5F0E0808109
:100B100080628C93CFC1A3E5B0E0E3E5F0E0808193
:100B20008F7C8C93A3E5B0E0E3E5F0E08081806307
:100B30008C93C0C18A81833009F0BCC181E063E03D
:100B400041E00E9418018B81282F30E0398B288BDF
:100B5000888999890097A9F0288939892130310538
:100B600009F0A8C1A3E5B0E0E3E5F0E080818F7C67
:100B70008C93A3E5B0E0E3E5F0E0808180638C93A3
:100B800099C1A3E5B0E0E3E5F0E080818F7C8C9330
:100B9000A3E5B0E0E3E5F0E0808180628C938AC158
:100BA0008981833009F08BC083E065E041E00E94D9
:100BB00018018A818F3061F08A81853049F08A81FD
:100BC000863031F08A81873019F08A818E3071F554
:100BD0008B81282F30E03F872E878E859F8581303F
:100BE000910531F02E853F852230310581F062C1BB
:100BF000AFE4B0E0EFE4F0E080818F738C93AFE47A
:100C0000B0E0EFE4F0E0808180688C9353C1AFE402
:100C1000B0E0EFE4F0E080818F738C93AFE4B0E05C
:100C2000EFE4F0E08081806C8C9344C18A818B304A
:100C300099F08A818A3081F08A81813069F08A81D5
:100C4000823051F08A81833039F08A81883021F0F6
:100C50008A81893009F02EC181E063E041E00E9481
:100C600018018B81282F30E03D872C878C859D854E
:100C70008130910531F02C853D852230310581F0A0
:100C800019C1AFE4B0E0EFE4F0E080818F738C93A2
:100C9000AFE4B0E0EFE4F0E08081806C8C930AC1B7
:100CA000AFE4B0E0EFE4F0E080818F738C93AFE4C9
:100CB000B0E0EFE4F0E0808180688C93FBC0898134
:100CC000843009F08BC083E064E041E00E941801A9
:100CD0008A818F3061F08A81853049F08A8186303F
:100CE00031F08A81873019F08A818E3071F58B81DD
:100CF000282F30E03B872A878A859B858B3091059A
:100D000031F02A853B852631310581F0D3C0AEE430
:100D1000B0E0EEE4F0E080818F7C8C93AEE4B0E054
:100D2000EEE4F0E0808180628C93C4C0AEE4B0E079
:100D3000EEE4F0E080818F7C8C93AEE4B0E0EEE4F2
:100D4000F0E0808180638C93B5C08A818B3099F00C
:100D50008A818A3081F08A81813069F08A8182308B
:100D600051F08A81833039F08A81883021F08A817C
:100D7000893009F09FC081E063E041E00E941801E2
:100D80008B81282F30E039872887888599858B309B
:100D9000910531F0288539852631310581F08AC0E9
:100DA000AEE4B0E0EEE4F0E080818F7C8C93AEE4C2
:100DB000B0E0EEE4F0E0808180638C937BC0AEE431
:100DC000B0E0EEE4F0E080818F7C8C93AEE4B0E0A4
:100DD000EEE4F0E0808180628C936CC08981823087
:100DE00009F068C08A81823091F583E067E041E0D4
:100DF0000E9418018B81282F30E03F832E838E8143
:100E00009F810097A9F02E813F812130310509F0A3
:100E100051C0A5E4B0E0E5E4F0E080818F7C8C93E4
:100E2000A5E4B0E0E5E4F0E0808180628C9342C00C
:100E3000A5E4B0E0E5E4F0E080818F7C8C93A5E44C
:100E4000B0E0E5E4F0E0808180638C9333C08A8178
:100E5000833081F583E067E041E00E9418018B81D7
:100E6000282F30E03D832C838C819D810097A1F059
:100E70002C813D8121303105E9F4A5E4B0E0E5E4C1
:100E8000F0E080818F7C8C93A5E4B0E0E5E4F0E0B5
:100E9000808180638C930EC0A5E4B0E0E5E4F0E0CF
:100EA00080818F7C8C93A5E4B0E0E5E4F0E0808164
:100EB00080628C9363960FB6F894DEBF0FBECDBFF1
:100EC000CF91DF910895DF93CF9300D00F92CDB7EC
:100ED000DEB789837B836A838981882329F4E2E5ED
:100EE000F0E08A81808311C08981813039F4ECE49B
:100EF000F0E08A819B819183808307C08981823061
:100F000021F4E4E4F0E08A8180830F900F900F9049
:100F1000CF91DF910895DF93CF9300D0CDB7DEB7A7
:100F200089836A838981882329F4ECE5F0E08A814A
:100F300080831DC08981833041F4EAE4F0E08A8136
:100F4000882F90E09183808312C08981843041F49E
:100F5000E8E4F0E08A81882F90E09183808307C0E5
:100F60008981823021F4E3E4F0E08A8180830F906C
:100F70000F90CF91DF910895DF93CF9300D0CDB73D
:100F8000DEB79A838983E6E4F0E089819A819183D0
:100F900080830F900F90CF91DF910895DF93CF93CF
:100FA0000F92CDB7DEB789838981882341F4A9E503
:100FB000B0E0E9E5F0E0808181608C9315C0898123
:100FC000813041F4A9E5B0E0E9E5F0E0808184609A
:100FD0008C930AC08981823039F4A9E5B0E0E9E553
:100FE000F0E0808180648C930F90CF91DF91089521
:100FF000DF93CF930F92CDB7DEB7898389818823A2
:1010000041F4A9E5B0E0E9E5F0E080818E7F8C93C2
:1010100015C08981813041F4A9E5B0E0E9E5F0E04F
:1010200080818B7F8C930AC08981823039F4A9E555
:10103000B0E0E9E5F0E080818F7B8C930F90CF9159
:10104000DF910895DF93CF930F92CDB7DEB78983F9
:101050008981882341F4A9E5B0E0E9E5F0E08081E9
:1010600082608C9320C08981833041F4A9E5B0E08F
:10107000E9E5F0E0808180618C9315C0898184303E
:1010800041F4A9E5B0E0E9E5F0E0808188608C9367
:101090000AC08981823039F4A9E5B0E0E9E5F0E0E1
:1010A000808180688C930F90CF91DF910895DF93BA
:1010B000CF930F92CDB7DEB789838981882341F41E
:1010C000A9E5B0E0E9E5F0E080818D7F8C9320C058
:1010D0008981833041F4A9E5B0E0E9E5F0E0808161
:1010E0008F7E8C9315C08981843041F4A9E5B0E0EE
:1010F000E9E5F0E08081877F8C930AC089818230A6
:1011000039F4A9E5B0E0E9E5F0E080818F778C93D0
:101110000F90CF91DF910895DF93CF93CDB7DEB7D6
:06112000FFCFF894FFCFA1
:00000001FF
