:100000000C942A000C9434000C9434000C943400AA
:100010000C9434000C9434000C9434000C94340090
:100020000C9434000C9434000C9434000C94340080
:100030000C9434000C9434000C9434000C94340070
:100040000C9434000C9434000C9434000C94340060
:100050000C94340011241FBECFE5D8E0DEBFCDBF25
:100060000E9436000C9454000C940000DF93CF9350
:10007000CDB7DEB7EAE3F0E01082E4E3F0E081E040
:100080008083EBE3F0E08FEF8083E9E3F0E08081B1
:100090008A3A29F4E5E3F0E082E08083F6CFE5E3F5
:0C00A000F0E081E08083F1CFF894FFCF06
:00000001FF
