:020000040800F2
:1000000000000120C5020008CB020008CF02000852
:1000100041030008450300088D03000800000000AC
:10002000000000000000000000000000D5030008F0
:10003000D903000800000000DD030008E103000808
:10004000F1030008F1030008F1030008F1030008C0
:10005000F1030008F1030008F1030008F1030008B0
:10006000F1030008F1030008F1030008F1030008A0
:10007000F1030008F1030008F1030008F103000890
:10008000F1030008F1030008F1030008000000007C
:10009000000000000000000000000000F103000864
:1000A000F1030008F1030008F1030008F103000860
:1000B000F1030008F1030008F1030008F103000850
:1000C000F1030008F1030008F1030008F103000840
:1000D000F1030008F1030008F1030008000000002C
:1000E000F1030008F1030008F1030008000000001C
:1000F000000000000000000000000000F103000804
:1001000000000000F1030008F1030008F1030008FB
:1001100000000000000000000000000000000000DF
:10012000F1030008F1030008F1030008F1030008DF
:10013000F1030008000000000000000000000000C3
:10014000000000000000000000000000F1030008B3
:10015000F1030008F1030008F1030008F1030008AF
:10016000F1030008F1030008000000000000000097
:10017000000000000000000000000000000000007F
:1001800000000000F1030008000000000000000073
:10019000F103000800B583B000F0BAF9384B394AD2
:1001A0001360394A1360394900E02146384B9942BF
:1001B0000BD20A684B6801F10C0488689842F4D9A4
:1001C0001168196004330432F8E72E4B1A68314B7A
:1001D0009A4200D0FEE72C4B1A682F4B9A42F9D175
:1001E000274B2E4A13602E4A13602E4B05E0002049
:1001F000106004329342FAD80B462B4A934204D241
:10020000194651F8082B5B68F4E7244B1B6813B9B7
:10021000234B1B6803B1FEE700F086F9694601A88D
:1002200000F022F9214C224BE41AA4100025AC4224
:1002300014DC204C204BE41AA4100025AC4213DC43
:100240000099019800F06EFA05461C4C1C4BE41A0C
:10025000A410002C0EDC284600F0E2F8144B53F8F2
:10026000253098470135E2E7134B53F8253098477E
:100270000135E3E7013C124B53F824309847E8E797
:10028000BABADECA0000002074000020F40300089F
:100290000C04000878563412325476987800002006
:1002A000100100200C0400081C0400081C040008B5
:1002B0001C0400081C0400081C0400081C0400089E
:1002C0001C04000808B5FFF765FF00BEFEE71EF03E
:1002D000040F0CBFEFF30880EFF309807146414A29
:1002E00010472DE9F04182B004468846124B5E6B00
:1002F0009F6B9D6A1B6B13F0020F03D00E4BDB6AE2
:10030000002B0CDB0D4800F0B7F8CDF800803B4621
:1003100032462946204600F00BF900BEFEE74BF6B8
:10032000AB6100F07FF90028ECD0034B4FF00042A6
:10033000DA6202B0BDE8F08100ED00E0D4150008FB
:1003400000BEFEE71EF0040F0CBFEFF30880EFF3D2
:1003500009807146244A10472DE9F04182B00446D5
:100360008846084B5E6B9F6B9D6A074800F084F8D7
:10037000CDF800803B4632462946204600F0D8F8AA
:1003800000BEFEE700ED00E0E41500081EF0040FDB
:100390000CBFEFF30880EFF309807146134A104752
:1003A0002DE9F04182B004468846084B5E6B9F6B96
:1003B0009D6A074800F060F8CDF800803B46324661
:1003C0002946204600F0B4F800BEFEE700ED00E04C
:1003D000F015000800BEFEE700BEFEE700BEFEE727
:1003E00070470000E302000859030008A103000859
:0403F00000BEFEE766
:1003F400040C01080000002078000020040C01080F
:1004040000000010000000107800002014010020FB
:080414000000001000000010C0
:10042000FEE7000008B503460C4A12685AB10B4AB1
:100430001068033323F003030344094A934206D8A8
:10044000064A136008BD054A06491160EFE700F04F
:10045000BFFB0C2303604FF0FF30F3E77C0000206C
:1004600000FC00201401002001230360014B0B60FD
:10047000704700BF040000200FB400B583B004AB88
:1004800053F8042B01938021064800F0D3FB002889
:1004900003DD0146034800F037F803B05DF804EBD4
:1004A00004B07047840000202DE9F04385B0044675
:1004B0000F4643560BB10E461EE004252846214642
:1004C000ABBE0446384605B0BDE8F08314F9011B05
:1004D00004AA1A4402F8101C0133AB42F6D304AA52
:1004E0001344002203F8102C4FF00408E94640465C
:1004F0004946ABBE8046761B002EE3D03546102E13
:1005000028BF10250023E8E708B5FFF7CDFF08BD99
:1005100008B500F097F8024A024B9A6008BD00BF88
:100520000000000800ED00E008B500F0ABF808BDE1
:10053000F8B504460D4617461E462748FFF79CFFB0
:1005400021682648FFF798FF61682548FFF794FF68
:10055000A1682448FFF790FFE1682348FFF78CFF6C
:1005600021692248FFF788FF61692148FFF784FF6E
:10057000A1692048FFF780FFE1691F48FFF77CFF72
:100580001E48FFF779FF29461D48FFF775FF1D4CF0
:10059000E16A1D48FFF770FF216B1C48FFF76CFFF5
:1005A000E16B1B48FFF768FF15F0800F0AD115F4C7
:1005B000004F0CD11748FFF75FFF06991648FFF769
:1005C0005BFFF8BD39461548FFF756FFEFE73146A8
:1005D0001348FFF751FFEDE7B8140008C8140008EE
:1005E000D8140008E8140008F814000808150008DA
:1005F00018150008281500083815000848150008C7
:100600005415000800ED00E064150008741500089A
:1006100084150008B4150008BC15000894150008DE
:10062000A415000883691A888A4201D00020704707
:100630000268033A012A03D802338361012070471C
:10064000002070470C4B1A6842F001021A6000212A
:1006500099601A6822F0847222F480321A60074A84
:100660005A601A6822F480221A60D960044B4FF055
:1006700000629A60704700BF0038024010300024CA
:1006800000ED00E0224B9B6803F00C03042B14D018
:10069000082B16D01BB11F4B1F4A1A6002E01D4BDE
:1006A0001D4A1A601A4B9B68C3F303131B4AD15CA3
:1006B000184A1368CB4013607047164B184A1A60EB
:1006C000F0E7134B5A685B6803F03F0312F4800FA6
:1006D00013D0134AB2FBF3F20D4B5B68C3F38813DC
:1006E00003FB02F30A4A5268C2F30142013252008C
:1006F000B3FBF2F3074A1360D4E7074AB2FBF3F205
:10070000034B5B68C3F3881303FB02F3EAE700BF04
:10071000003802400C0000200024F40000160008FD
:1007200040787D0110B500F047F9002000F05CF939
:1007300000F016F800F036F8002300E023465C1CB9
:10074000064AD15C002000F021F97D2000F010F86D
:100750004FF290539C42F1D10023F0E710160008AD
:10076000024B1A686FF382021A60704710E000E0D3
:100770000B4B1A686FF300021A605A6860F3170295
:100780005A601A6842F001021A60054B1B6813F4A4
:10079000803FFAD0024B1A686FF310421A6070471C
:1007A00010E000E00023072B00F3E78030B449E0BD
:1007B00003EB4302714901EB4202507840000321F0
:1007C00001FA00F46E4D296821EA0401947804FAD4
:1007D00000F001432960D278FF2A1CD003EB4300CC
:1007E000664A02EB40004278012101FA02F5644CAE
:1007F000616821EA0501C57895402943616052008E
:10080000032101FA02F5A16821EA0501007900FA45
:1008100002F20A43A26003EB4300584A02EB400095
:1008200041784900032202FA01F4554DEA6822EAB0
:100830000402407900FA01F10A43EA600133072B10
:1008400000F3998003EB43024C4911F81220012A6E
:100850004AD0002AACD0022AF0D103EB4302474928
:1008600001EB420250784000032101FA00F4454DAB
:10087000296821EA0401947804FA00F00143296010
:10088000D278FF2A1CD003EB43003C4A02EB400025
:100890004278012101FA02F53A4C616821EA05012A
:1008A000C5789540294361605200032101FA02F5A1
:1008B000A16821EA0501007900FA02F20A43A26068
:1008C00003EB43002D4A02EB40004178490003222C
:1008D00002FA01F42B4DEA6822EA0402407900FA98
:1008E00001F10A43EA60A9E703EB4302234901EB64
:1008F000420250784000032101FA00F4224D296899
:1009000021EA0401947804FA00F001432960D278C6
:10091000FF2A1CD003EB4300184A02EB4000427848
:10092000012101FA02F5184C616821EA0501C57838
:100930009540294361605200032101FA02F5A16844
:1009400021EA0501007900FA02F20A43A26003EBF2
:1009500043000A4A02EB400041784900032202FAB0
:1009600001F4094DEA6822EA0402407900FA01F133
:100970000A43EA6062E730BC70477047A00B010889
:10098000000002400008024000040240012806D096
:1009900010B1022806D07047044B59617047044BD0
:1009A00059617047034B5961704700BF0000024016
:1009B0000004024000080240094B1A6842F001029C
:1009C0001A601A6842F080021A60054B1B6813F027
:1009D000020FFAD0034A136843F080031360704794
:1009E0000038024008380240202800F2E880DFE8A2
:1009F00010F0210027002D00330039003F00450092
:100A00004B00510057005D00630069006F007500E6
:100A10007B00810087008D00930099009F00A50056
:100A2000AB00B100B700BD00C300C900CF00D500C6
:100A3000DB00E100624A136843F001031360704772
:100A40005F4A136843F00203136070475C4A1368FF
:100A500043F0040313607047594A136843F00803D6
:100A600013607047564A136843F0100313607047D1
:100A7000534A136843F0800313607047504A136869
:100A800043F48053136070474D4A136843F40013D6
:100A9000136070474A4A136843F480031360704739
:100AA000484A136843F0800313607047464A13684E
:100AB00043F0010313607047434A136843F0020395
:100AC00013607047404A136843F004031360704793
:100AD0003D4A136843F00803136070473A4A1368AD
:100AE00043F4006313607047374A136843F480434C
:100AF00013607047344A136843F40043136070472F
:100B0000314A136843F40033136070472E4A136868
:100B100043F40013136070472B4A136843F48003B7
:100B200013607047284A136843F40003136070474A
:100B3000254A136843F0805313607047234A1368B3
:100B400043F0010313607047204A136843F0100319
:100B5000136070471D4A136843F020031360704709
:100B60001A4A136843F4807313607047174A136876
:100B700043F4006313607047144A136843F48053CE
:100B800013607047114A136843F4005313607047B1
:100B90000E4A136843F48043136070470B4A13688E
:100BA00043F4803313607047084A136843F40033FA
:100BB00013607047054A136843F48023136070473D
:100BC0003038024034380240403802404438024055
:100BD000014B1868704700BF1000002030B5141E8C
:100BE00005469BB0184605DA8B232B604FF0FF308B
:100BF0001BB030BD4FF40273ADF80C3014BF04F1DC
:100C0000FF332346029305934FF6FF73009104913F
:100C1000ADF80E3002461E9B6946284600F072F879
:100C2000431CBCBF8B232B60002CE1D0009B002217
:100C30001A70DDE707B5009313460A4601460348DC
:100C40000068FFF7CBFF03B05DF804FB1000002045
:100C50002DE9F0478E689E4282460C4690469946A2
:100C600037D88A8912F4906F31D0256809696F1AD4
:100C70006569022305EB450595FBF3F509F10103D1
:100C80003B449D4238BF1D46530530D5294600F0F0
:100C900079FB064650B90C23CAF80030A38943F00B
:100CA0004003A3814FF0FF30BDE8F0873A46216949
:100CB00000F0F6FAA38923F4906343F08003A38144
:100CC000266165613E44ED1B2660A5604E464E459B
:100CD00000D94E4632464146206800F0ECFAA3683F
:100CE0009B1BA36023681E4426600020DCE72A4685
:100CF00000F0A2FB06460028E2D12169504600F030
:100D0000F3FAC8E72DE9F04F9DB0804603938B8935
:100D10001D060C4616460FD50B696BB9402100F035
:100D200031FB2060206128B90C23C8F800304FF057
:100D3000FF30C7E0402363610023099320238DF82F
:100D4000293030238DF82A304FF0010B37463D46CD
:100D500015F8013B0BB1252B3ED1B7EB060A0BD0A2
:100D60005346324621464046FFF772FF013000F0FD
:100D7000A480099B534409933B78002B00F09D808D
:100D800000234FF0FF32CDE90523049307938DF83C
:100D900053301A932F46052217F8011B4F4800F0D5
:100DA0002FFA049BD0B9D90644BF20228DF85320D6
:100DB0001A0744BF2B228DF853202A782A2A15D0EF
:100DC000079A2F4600200A25394611F8013B303B8F
:100DD000092B4DD9B8B10FE02F46B8E73F4A801A2A
:100DE0000BFA00F0184304903D46D3E7039A111D17
:100DF00012680391002A01DB079204E0524243F09B
:100E00000203079204933B782E2B0CD17B782A2B7C
:100E100033D1039B1A1D1B680392002BB8BF4FF000
:100E2000FF33023705932E4D39780322284600F010
:100E3000E7F938B14023401B03FA00F0049B034359
:100E400001370493397827488DF8281006227E1C34
:100E500000F0D6F9002838D0234B13BB039B07338F
:100E600023F0070308330393099B4B4409936DE771
:100E700005FB023201200F46A6E700230137059348
:100E800019460A25384610F8012B303A092A03D9A9
:100E9000002BC8D00591C6E705FB012101230746B9
:100EA000F0E703AB00932246104B04A94046AFF392
:100EB0000080B0F1FF3F8146D6D1A3895B063FF5A4
:100EC00036AF09981DB0BDE8F08F03AB0093224602
:100ED000064B04A9404600F081F8EAE7D00B010870
:100EE000D60B0108DA0B010800000000510C0008C5
:100EF0002DE9F04791461F468A680B69DDF820808E
:100F00009342B8BF1346C9F8003091F84320064613
:100F10000C4612B10133C9F800302368990642BF6C
:100F2000D9F800300233C9F80030256815F00605FD
:100F300007D104F1190AE368D9F800209B1AAB42E3
:100F400028DC94F843302268003318BF012392064E
:100F50002DD404F1430239463046C047013020D039
:100F60002368E568D9F8002003F00603042B08BFC6
:100F7000AD1AA36822690CBF25EAE57500259342E6
:100F8000C4BF9B1AED184FF000091A344D451AD111
:100F9000002008E00123524639463046C047013060
:100FA00003D14FF0FF30BDE8F0870135C3E7E1180A
:100FB0005A1C302081F84300224494F8451082F8EE
:100FC00043100233C5E70123224639463046C04765
:100FD0000130E6D009F10109D8E700002DE9F0431E
:100FE00001F1430C0C46097E85B06E291746064672
:100FF00098460C9A00F0B38022D8632936D00AD8DC
:10100000002900F0B980582900F0838004F14205DE
:1010100084F8421032E0642901D06929F6D12068B1
:101020001368050603F104012AD51B681160002B23
:1010300003DA2D225B4284F843206F480A2239E00C
:10104000732900F09D8008D86F2920D07029DDD148
:10105000236843F02003236003E0752917D0782923
:10106000D4D1782384F84530644855E01368191DBD
:101070001B68116004F1420584F8423001238CE0C2
:101080001B68116010F0400F18BF1BB2CFE7136848
:101090002568181D1060280601D51B6802E0680647
:1010A000FBD51B8854486F2914BF0A22082200214F
:1010B00084F843106568A560002DC0F29580216812
:1010C00021F004012160002B3DD1002D40F08E80E5
:1010D0006546082A0BD12368DB0708D523696268B7
:1010E0009A42DEBF302305F8013C05F1FF35ACEB39
:1010F00005032361CDF800803B4603AA2146304614
:10110000FFF7F6FE01304DD14FF0FF3005B0BDE8DE
:10111000F083394884F84510136821681D1D1B6849
:1011200015600A060BD5CA0744BF41F020012160B3
:101130001BB9226822F0200222601022B7E74D0678
:1011400048BF9BB2EFE76546B3FBF2F102FB1133F8
:10115000C35C05F8013D0B460029F5D1B9E71368DA
:1011600025686169181D106028061B6801D5196083
:1011700002E06A06FBD51980002323616546B9E7C2
:101180001368191D11601D6862680021284600F06F
:1011900037F808B1401B606063682361002384F85E
:1011A0004330A7E723692A4639463046C047013015
:1011B000AAD023689B0713D4E068039B9842B8BF6A
:1011C0001846A3E701234A4639463046C047013056
:1011D0009AD00135E368039A9B1AAB42F2DCEBE745
:1011E000002504F11909F5E7002BACD1037884F848
:1011F000423004F142056CE7E10B0108F20B0108F3
:1012000001F0FF01102A2BDB10F0070F08D010F8B7
:10121000013B013A8B422DD010F0070F42B3F6D1BB
:10122000F0B441EA012141EA014122F007047FF0D4
:1012300000070023F0E80256083C85EA010586EA2B
:10124000010685FA47F5A3FA87F586FA47F6A5FA67
:1012500087F68EB9EED1F0BC01F0FF0102F0070273
:1012600032B110F8013B013A83EA010313B1F8D11E
:101270000020704701387047002D06BF35460338FF
:10128000073815F0010F07D1013015F4807F02BF38
:10129000013015F4C03F0130F0BC0138704700BF89
:1012A00010B5431E0A44914200D110BD11F8014B04
:1012B00003F8014FF7E7884210B501EB020307D8A6
:1012C000421E99420AD011F8014B02F8014FF8E78B
:1012D0008342F5D98118D21AD34200D110BD13F838
:1012E000014D01F8014DF7E738B50546002945D015
:1012F00051F8043C0C1F002BB8BFE41800F0D2F8E2
:101300001F4A1368104633B9636014602846BDE86D
:10131000384000F0C8B8A3420CD921686218934243
:1013200004BF1A685B68636004BF521822600460DF
:10133000ECE713465A680AB1A242FAD9196858185C
:10134000A0420BD120680144581882421960DDD1B7
:10135000106852685A6001441960D7E702D90C231B
:101360002B60D3E7206821188A4204BF11685268B5
:10137000626004BF091821605C60C7E738BD00BF28
:101380000401002070B5CD1C25F0030508350C2D97
:1013900038BF0C25002D064601DBA94203D90C23DA
:1013A0003360002070BD00F07DF8214A14682146AA
:1013B00091B9204C23681BB9304600F063F82060D7
:1013C0002946304600F05EF8431C24D10C233360DC
:1013D000304600F068F8E4E70B685B1B18D40B2B71
:1013E0000FD90B60CD50CC18304600F05CF804F1FA
:1013F0000B00231D20F00700C31AD3D05A42E2503D
:10140000D0E78C424B6816BF636013600C46EBE775
:101410000C464968CCE7C41C24F00304A04205D064
:10142000211A304600F02EF80130CFD02560DBE7DE
:101430000401002008010020F8B5074614460E46B6
:1014400021B91146BDE8F840FFF79CBF22B9FFF76C
:101450004BFF25462846F8BD00F026F8A0420FD2E3
:1014600021463846FFF78EFF05460028F2D0314668
:101470002246FFF715FF31463846FFF735FFE9E70B
:101480003546E7E738B5064C002305460846236095
:10149000FEF7C8FF431C02D1236803B12B6038BD9F
:1014A0000C0100207047704751F8043C181F002BB6
:1014B000BCBF0B58C0187047537461636B206672D1
:1014C000616D653A0A000000205230203D20202541
:1014D0003038580A00000000205231203D202025DD
:1014E0003038580A00000000205232203D202025CC
:1014F0003038580A00000000205233203D202025BB
:101500003038580A0000000020523132203D20259A
:101510003038580A00000000204C52203D20202581
:101520003038580A00000000205043203D2020257C
:101530003038580A0000000020505352203D20252A
:101540003038580A000000004653522F4641523AA4
:101550000A0000002043465352203D202025303809
:10156000580A00002048465352203D20202530389C
:10157000580A00002044465352203D202025303890
:10158000580A00002041465352203D202025303883
:10159000580A0000204D4D464152203D202530384C
:1015A000580A00002042464152203D202025303874
:1015B000580A00004D6973630A000000204C522F46
:1015C0004558435F52455455524E3D2025303858BA
:1015D0000A0000005B486172644661756C745D0AC4
:1015E000000000005B4275734661756C745D0A0013
:1015F0005B55736167654661756C745D0A00000038
:1016000000000000000000000102030406070809B2
:1016100000ECE6E2F1FFF4EFEEE8E6E3D7D9ECF216
:10162000EAEBEEF9010003F8F5F9F702F60100FC28
:10163000FBEEF9FF15181A1B2127201A06FDFA0FD9
:1016400015130F0A0403FBE9EDF2FBFDFEF9F1FBB4
:10165000FFFDEFEFF6FD09F900F806FEF8FBFA08CA
:10166000030C060F0F171C15130E1624211B15153E
:101670000AFAE9E7EAF700FB07000B0A0CF9F3F4B2
:101680000509FBFFEAEFEBE4D7D4E4E4E3EBECEA93
:10169000F6FFF8FEF4FB01FAFFEFEFF9F6F6F702BA
:1016A0000F121F231F23281A0DFEF70A080505ED48
:1016B000F8F5EAE5DDE5E6F3FAF7F3FDFCFF00F205
:1016C00000150D190A040B071310151B1E1E1E1AF8
:1016D000140F0F130E051C1516150A120F04EEE653
:1016E000E0F0F0F6F4F5FDFC01F7F2F5FCF4FFF99B
:1016F000EBEBEAEBE7DEE1EDF0F5EFE5E7E7F1F341
:10170000F701F704F8EBEDF3F3F2FAFC0A0D1A1DFA
:101710001B262521130A0E0B0F0C000001FEFBEF08
:10172000ECE7EC0203FF01FEFBFDFE01FC0513FEEE
:10173000FFF6F5F9F5FFFF0C15180D1109000A0663
:10174000151509140B090704120AFBF4F1F1FD0049
:101750000708000702000EFDF8FDF4F9F7F3FDF1AC
:10176000E5E8E7F7FBF4F1E1E1E6DA0000F402F581
:10177000F4E9E8ECF5F2FA07071B1A1E201520150C
:101780002024090CFFF7FEFDFBFEF3E4E6E3E3EBA8
:10179000EBEDEFEEF0EA01F8F804FF00F9FAFF0ACA
:1017A0000108121C2F312F2B1E1813292B261F0F57
:1017B000171212111A1001FAF5F1ECEAE9EDEEEC4C
:1017C000F203FCF9E6E9ECE4F7FCF8F0E4DDE6F41A
:1017D000FEF4E7E6DDD3E7F0FBF2EEF8F0F7F8F819
:1017E000EAF3EAFB0C0D130D171C16293A2C2713EC
:1017F0000B02FA09110A0AFAF3FA02FEFEF3FDFAE5
:10180000F91202FFF3ECF3F9FA0805FFF5F10116FE
:101810001814130E0D00000A0505FFF2FDEDF80681
:10182000050903F8FCFCF9F2E2E9F0FC0F1605F4F7
:10183000E9F0F3F50B14101108070B0F0C07030266
:10184000FFFC03F800F7F5F6EEF9FEF9ECE7E5F337
:1018500010140C04FF0D0E22231505F3EDE4E4EA49
:10186000F1EEF3EDEEECE0DBDFD8DDE0EAF9F0EDF0
:10187000DFDDE3EDFC09080AFFFC16202A2E2529EE
:101880002E363A241813151F2021212B332D2E2EEE
:1018900024180EFAEFF5F8050A0505EFE0D7E0E6A3
:1018A000E7EAE5E5DFD9D5CDC8CAD0D4DFF7DFCF89
:1018B000D2D7E8EEF7FA0C100B03FE060B1B1F1F26
:1018C0001C1D2B272A311A1212191C1E1F171E212C
:1018D0001304F9E7EDE9E3ED03F4ECE7D9E0D2DE38
:1018E000E8F2F3F0EAD9D5E1EFF0F8030B1D21138C
:1018F00004F1F6FE010B0E06FF081923221F1D241A
:1019000026191F30312F20140C0201060D0B111364
:101910000C03F2F1E3D6DEDAE8E8DBC7B8BCC9D4E1
:10192000E1E7EAF1E7F3EFDCE3F9070F0C0F1D271E
:101930002E21FDECF90603FC081F3436271E24195E
:10194000FEE9EB0308FDF8FD0300F8F60809FCFECC
:1019500005FFE0D4E8FD0301061A1B12FFF5E7D3EB
:10196000E9F900FA05111D372F1E22231103F5FF97
:10197000030C09090D0D0E090D020AFF04F5E8DF3D
:10198000E9E1DBEAEBFBE9DFD0C9C8DEE4F9E3BD5E
:10199000CFE6EAD8DCEA193332232E3829261B0B8E
:1019A000162712101F1F1D1C140D05FBE3E6F4E99A
:1019B000EEEDF2F5EBE0EEECDEEDEBEEFAF7E9B78B
:1019C000C5EAF00A192A384231220F1C1C1C1C12CD
:1019D0000E08131B372A2A1C2018F8F6EBF6FFEE28
:1019E000E9F9FBF4F0F3F3FCF3EAE9FAD6ACC8D674
:1019F000DAE9ECF31E1CF6FE161A0DF7F1EE06FA04
:101A0000DBEF0B1F2B221508FB04F30609010C0F5B
:101A100009FF04F6FEF5F6EDF7DEABC1D9DAD3F532
:101A2000F41A2D18101F281612FB0002060F2F445F
:101A300045403C2D2516EEEBF90B151D1714111919
:101A400005FE0106E1A9BFC8CFCAE1EF1C2C060ABA
:101A5000160DF8E0D4ECFBEEE20925150808090E96
:101A6000F5D7CFE4ECF2FC0514150AF6F8F1F1C154
:101A7000C1E5E3E3EA0726412B25322C0AF1DCDF3E
:101A80000307F7002732230A0E08F9E6D7D9E4E75F
:101A9000F1F9FD0DFFFC070FDDB0CEE6EDF6F9190B
:101AA000484B1D17222415F2DFF5101103153532AE
:101AB0003D1F1D16F8EAEC0203F7ED0707FC0100D5
:101AC00017E1B3C3C0CCD0D3EA1F16FDEC0001E18F
:101AD000CAC9E2EFF0E508120FFEF5FD0FFCF3EFC7
:101AE0000420120F182228262514C3CFD5D3E6E2EE
:101AF000F0293F1711090B05E8C8D7F4F4F30E19C4
:101B00002E2E050104F8EEFD0513212725271A1AAC
:101B100017D9C6E6F5EEF80322412F202C2009F64E
:101B2000D4D8F1EDEE0E1F1E1C11060FF6E3ED01E9
:101B3000FFF4FBF6050DFDD0B1BFC5BFC4CA02213D
:101B40001F191A1C07F0E0D6E7F3E1FA1E3A1E1B34
:101B50002A33290C080718F3DAFB1623FBD5EE030A
:101B6000ECD7DAFF1E10F2E8060BF0E2F60C03DF0A
:101B7000D50C28150C1630351D0D232A200AFF1907
:101B80000BE0BEDEF8F7FD0B2E4C4116141F0AF2D7
:101B9000D9E1FEFAFB0E272613F8F6FEFCDCD9F598
:101BA000F7FC0911FDD9B9C1C0B7BECBFB190B07B2
:101BB000020405F1E7E5E9F3EE0229322E2F303376
:101BC0002E19110302FB03FDD7D2F0F6F002010B30
:101BD0000FEFE8E9DCEBEFEFF9FD080E1325230C1E
:101BE00001000E0B1B3137332B14F7FDEFF0E8ED3E
:101BF0000A232E22262E260DEDD2D5D6D3EC010AAD
:101C000014120501FAE6EDED0107F9D9CAE7F3EC84
:101C1000E7F0031305F5F2F7FDF7DAE6F3F707113E
:101C200010140CFDF6F0FCFB01FB1919EEE901FFA5
:101C3000E0D9DE112604F8021416FFE3F40B0F11AD
:101C400012282B1EF7E3EAF0DFDFF804E9C0EA13FD
:101C5000231C10162B280701050C07ECF4131D1F7D
:101C600028383A3419070D06F1FA1113F5D4DAF1D0
:101C7000F5E4DDF20A0BECE0EAF0E6CCD7E9F4F1AA
:101C800000111AFDE4E0E6EEF2F9EFFCE5D1E2E83E
:101C9000ECEDF403140804212D2A1E0804130B0C88
:101CA0001F2A1E10F8EE03FCF0F7F0D1C8D1E6F2BF
:101CB000EBE9081807F4F1010AF5D8F8181E343DCD
:101CC0003F4234131005000A070FFAE8F511140E0D
:101CD000050F0DF4E1D5FA0A01FBFDF80205F60A3D
:101CE00004F8F5F2FF090601EBD2C5C8D4D2EDF82D
:101CF000F2ECEDE1E9EDE2F5F2FB141A222D1C26DF
:101D00001509FEFE0E1823F8EDFD01E4F40B102179
:101D100009EFF2F5E3D5CEE7F6FE0B1619080A0334
:101D2000FFF5F5ECF5EAB7D506191E223048412338
:101D30001104F4E9D7CFF61C30303737281B0005E3
:101D4000FBF2F1EBEDFD0E0608120CFBFAEFF4F3DB
:101D5000EDE6E0D4DDF6F60B0702FBF5E7D7D6DFBC
:101D6000DDBEB3CBF3FD101B10220DE2E7F9F50346
:101D7000FA06252E41412A07F6F4FFF8FD01F5DBAE
:101D8000CFE5E9E701FF0E2BFBEAF3FA06FEDBF7EE
:101D90001B25260D232D1C0CFF051909EBD5E91277
:101DA00008020B1D3C2501FC05F8F5E7F005F917C5
:101DB000292F2206F904F4EBE8D6D0C3E2060E0878
:101DC000FE061504F2DAD2E6DEC7DCFC182B161587
:101DD00015FDECEEDEEEF9D4B9CFFA0814041C417F
:101DE0002E0BFDEDE7F4E1ED1A241C2933301DF034
:101DF000EDF5E1EDF1CDB8DBE2EF00F0102C1BF7D3
:101E0000ECEB070F000E3744454B312A210AF7EF60
:101E1000FE1EFABCD3FE0A131418241805FDF8FBA5
:101E2000F7DCC9EAFD011B292914F5E1E4E5F1EF2E
:101E3000CDBFD6DAEDF3E1EE09FBE0E1E403F8E330
:101E4000EC03161921292F261B0F10192210DACDA9
:101E5000EAF1F2F9F4182309FDF6F2E6D6D0EC0C1B
:101E6000282B201308FEFDF2EEF6EACAB1CDFD20C4
:101E70001D0D163032261C0B1814E1DE05314F39CA
:101E800026332B160FFA050DEDCCC1DEFA0DFAED57
:101E9000041302F1E1E000EAD3F202112B0F111A50
:101EA000FEF3DFBED2EACBB9D3F4030FF8F1131976
:101EB000FAF2D6DD0EFAF4102D4541161716FF037F
:101EC000FDFA0B12E4C6E1F5FA02EBEE0901FAF4B1
:101ED000DDDDEED4DFFF15383E302320180C041A68
:101EE000291CEAD4EF041305071F2D0AF20108206C
:101EF00012FB0414262A2A28280AEFD6D2F3FEDD84
:101F0000BACBE0EAF1F4F90E1107F5EFF9F5D8CB09
:101F1000D9F50B090712161001F300F9EBC4B9D972
:101F2000FE200C032734220CF3FAFDD7D0EF193C26
:101F3000422F26170703EDF1F6FCDAB5C5D2FB15E3
:101F4000F5010B0205EFE5F702F2020732534B44AD
:101F50003A2616FAE6F50A11D3D3EE0B2305FA1B3F
:101F60001E0E02DFE80BF2E2EF0A3A3D221D190EC7
:101F7000FBEAE1D7E6C5B5DAEF0207E1DCFAF2ECFD
:101F8000E5DAEBECD7EC042132231A110D120E0422
:101F9000FB02FED4CCF4111F1906172919FDE2E348
:101FA000EFD9CDE104273227240CF4E8DCDDF2F38D
:101FB000C0BDE3F6111B0E3642302104041702DEC9
:101FC000F714334C3E323C2F271B000217DAB4D3F0
:101FD000D7F303EAF0100709E9DAEAE4C5C8F20624
:101FE0002E37302F2C1600E5CDD3B9A8B4C7DE07A5
:101FF0000B0D362F1D01E9F0F4E0E0FC0E2E403D04
:102000003D27190DFDEFF9E9C1D0E5F00309FF1EE9
:10201000240BF7E3F5F2CDB8D5F20A1D1D2B2A20CB
:102020001309071809D1D6F507191E152A3B2610E2
:1020300000FD00EBDFF10D273A3A36301B0F00F7B9
:10204000F9E0B5C0D3E1F6ECE3FD271F04EFF2FFA2
:10205000E6D2D4DCECFBFCFB011015140704EDB94F
:10206000B1C4D4E6EDF81B322B1E1301F7EBE3EA03
:10207000F80E2231393635250C0110EFB8B3B6CC45
:10208000E3E3E000182513FB00F9EBE3EBF1FF19A4
:102090002B2B363335392722EEB9CAE0E6FE020A89
:1020A00035483E302A200DF5D7C9F10B131308101F
:1020B0001E1F1412F7CFB8C7CFDAE0F303151E11B5
:1020C00008E5D8CFC9C7CEE5060A0D231A1A24158C
:1020D0001203D1BDD7E6E5E3E8FE192E292B270D23
:1020E000F6F4EDF905000F161917130E1915E4B9DA
:1020F000BBC4CBD2D1E3111A0F15101C1907FC0079
:102100000721250E16181826363014F6F6FEF8F1BB
:10211000E9F001222309121B150AF4E0F40F0B0168
:10212000F7F2F70915200CEBE0E2DACAC4BDC1D022
:10213000EBEBEFFE10160D03EE021706EFF1F90BB5
:10214000161915FFF0FB08F5EEE5E9021A130E1D4E
:1021500022130402FF030B0AF0E1DEE3F30500E4BF
:10216000DDEF0300E8DFE5F615190C122224251F28
:10217000212525251707090F16342E02EF031B21F1
:1021800007E3E2F5FEF0E3E40011FBEAF5FD1421BC
:102190000DFBF2F2041309F0D1D0D6D3C3C5D1F0B0
:1021A000080AF6E2FD0907F6EAF61522241B0B10D1
:1021B0001B0F04F6E7EDFD07FAF506131718FEF4FA
:1021C000FA0403E9E4EBF5080FFDF6090D10FEE44F
:1021D000DFE4F0E5D8F010223122150D0F2721128F
:1021E00006080A0F0F0E1B2431302F09E7E7F3F022
:1021F000E0CFC8F4121401F910190BFBF0F502FF3F
:10220000F3FA09131B2006CFB7BDC3CCCFCCD8F54A
:102210001F301608101109F4E9EC050FFEF0F20C5E
:10222000304128FAE1EBF804ECDEE8F80A0C07FD8F
:10223000010BFFF1ECDEE9FAFCEFDDF01B3012EDF3
:10224000E8F81109ECE4F01228191323383D311C89
:10225000121823210E020A28382E0FE7DAFA01E4B9
:10226000D1CBCFDFF8F0E3E404121409F10012112E
:10227000E7D0DCF3FBF4D9C2DB0302EBE8E1E4F0E6
:10228000F5ECF1020B1B22140F192F1C03F4F60AB4
:102290001720F1E512291BFFF0F1F701EBD1CCDC9F
:1022A000FD07FEFD0B181AFEF0F5F2EAF4FBE0EA7A
:1022B0000A171806EDEF152E15F9F2FC151D221C54
:1022C0002E47432D1B16081101D4CCDAFA0F07F361
:1022D000E9F4091E09E0E3FAF4EBE9F3111F15FD37
:1022E000E6E2EDF4F1D2BCC4E2FCE8D6D6F4182064
:1022F000F9F20A0CF5E7F3061C25291E201A2828F6
:102300001DF9D4E40002E8DFD7EF09F2D4EF0E0F95
:10231000F6E5E4F81D15FEE9EE07142A2C01001578
:1023200009F6E7E2EF202F0BFD1A2827241B141BC8
:102330003424FCECFB030F1B01E3F603F8DED7DCCF
:10234000E30401F6FB0B110F0603FC070FF1D2CBE0
:10235000D4ED07FAE5DFF705F9E1D1DCF0FCF7EAA7
:10236000E9F0071E1D1221483A17FFE5EE06150C8D
:10237000F6F0040D01EFDBD0E0F8E5D9DDEE0E1A42
:10238000FDF616221606ECEA0B12160ADEED161DF5
:102390000F01FBF7191F0F08001B31220A142D3300
:1023A0003005E6F0FC1019F5D4E4F9FDFDEDE10887
:1023B0002716F3DDEA0804DFD9EE060DEFDDE6F2BD
:1023C000FC03F6CCC6D5E6F9F1D9E90C220DE7E815
:1023D000061C0CFEFB18413E18FF0416251BFAD5FF
:1023E000D2DFEFEAC9CBE10A1E05FB04120BF7EFBF
:1023F000F31121170EFA05283425FBE0E5FA10EF5A
:10240000E6F30F331A1B1E2B291B05F00417170EBA
:10241000FBEE0C1E1A09E6CDE1EDDED0C5DD0C1F8A
:10242000130B191815FBDEE5ECFBFCEFDAE70812DD
:102430001D05D3D9EADFD9C5C5E70C100B1918263D
:102440002B1C13100F1517FCF40111221DF2DCDEFA
:10245000D9E2D3C5D2ED050608F8FA100F05FD0D37
:1024600019221806F9FE122119F5FD040C05F2EEE9
:10247000022118231C0C19231B151614212D1C01D5
:10248000ECE70312F6CCCDE6F6F3DFE9070C09F72B
:10249000DAE2F6FDF1EDEBF6030F0CFBF8F9FF07BE
:1024A000F9D2D1D6E5E5DCDDE9171B0D090F2122B4
:1024B00011100F162829180B07FE0A08D6C7CDD110
:1024C000E6DED5DE0B0C000CF905110904FEFA0658
:1024D0001D1C0D16182C3D11EBF1F1F8FEEDE80E68
:1024E0002013222123261606FCFE030D110B09FDE5
:1024F00005172604D0D1DCF2E1C0D0F606020903AC
:10250000061AFADDE6E6E502FCF5FCFD101C1FEC00
:10251000D0C9D0D7CCD4E5000C1C22223B34140AFD
:10252000FBFE2125170BF7F400120ADFD7E5E7D6EB
:10253000C8C6E10602FCFD141D0E02F9FA03091AD1
:10254000211D1714283D22F2FDFCFCFFECEA182C9B
:102550001D190E191A12FF030C040E16111307058C
:102560000905F4D8E2DBE3D7BDC3E70604FBF9FFB6
:10257000FBEDE2FC020102FF090903070608EBC5B7
:10258000D7EEF3DED9E6101D0D111A271B06091F21
:102590001F1D1308F8FAFAF902FFD7C0D9E1E4D8F1
:1025A000D0DE0507080102100A07001120343D2F74
:1025B000261A1921342AF1F1F8FA00F4E6FC180D74
:1025C000070810000600FF030216251F0CFAF0078B
:1025D0001909DDD8DAE0D9C8C6F006EDEBEEF7FE52
:1025E000F9E2EFF3011410120BF8F7040801DEDF33
:1025F000F80BF7DBEC0F1B1C0BFB191E1208020A71
:10260000130C0600F0EBF50213F0C5D5DFE8DED4BD
:10261000DBF1FDF9F101131518161F2B3634322AA0
:102620001E1921312EFCEDFB0504F3E6E90F0EF433
:10263000EB02100FFC021918141315FEF5F4000F2D
:1026400008D4CAE1EAEDDFCDE0F6E1DFDAEEFAF533
:10265000F2011013191E0F01F5F4FBFEFEDDEDF87B
:102660000710ECE7080D02F9FF0B1106FD0E0F1520
:1026700012090902F5FF0909F0CED1F004EDD6D612
:10268000EEFAEAF00B1A1A10131F252A2E352C2306
:10269000211922320FE3F30000F0DCE204FFF8FE20
:1026A000FD1406F3F0030C0D140D0E0EFDFE1119B2
:1026B000E7C2DBEBF1D5BCD1ECECECE9FC0F05F5A6
:1026C000F0FBFE0B0E1213FAEB03272600F4FF03B8
:1026D00006E3C9E2FF02FA010F1C19FEF5F705082F
:1026E000000D00EFED021B15EAEDF4EFECC6C2E6BB
:1026F0000DFCF6FE2643220D1B2D2B2D3032200C17
:102700000D263011EAEE080E00CFD5050BF9E3EAED
:10271000132507EEF1FC0C1507FFF6F3FD0811F782
:10272000E0DEE3E9D0B1C8F6FBEEE6F6140EF3F115
:10273000F2F60D0E070A030E262823F1D4E7FEF762
:10274000D4D0FF2510FCF70D1B06EFE7E7001205BC
:1027500004FFF7FA092025F1D1E7F9E6C8C8F72404
:1027600026161233412903082028230F0E180E03C2
:10277000112C28E9DAF2FAE8CDD0F41310FB011E8F
:102780002906E4F4FF05FAF8070EFCFC142405D42E
:10279000CFD4DBD1BABDEF0BF8EAFE1C1BF2E4FE8E
:1027A000070C01021511F9FC1D3115EAE0EE07F4E2
:1027B000CDD70B18FBE6F6201AFFF1F8FC03F9F56C
:1027C00005F8EAFC141400D0D1F5F9EADDF3202B6A
:1027D0001B15293835251D1E21231D272412020B08
:1027E0001622F9C4DBF5F9E5D1F41C0FF8E8F31172
:1027F0000EEAE6FD0F17070A0C04FCFAFBF1C6B55A
:10280000C6D9EADBD9F3170DEEE7012014EBE60792
:102810001C2418171D1D13121707DAC9D3E3F0D9AA
:10282000DD01240CEEF10820F8D1E40011120516A8
:102830001D0B03FF07FFDBD3DEF602EAF62B3C207D
:102840000F173A4011F5051E25120C2534300F05DF
:102850001707D8C8DDEFECCEDC0F15FEF1FA170F25
:10286000EBE0FA151907FE081309ECF1F4D7CDCD0A
:10287000D0DBCBBCE1FDF9FFF70C200EF8FA101B02
:102880001B0908212E1F131C09E5DCD7F1F7D6D54B
:10289000EEF7F6EDF51519FDE7F0021A15FFFC0647
:1028A000F5F40511FCEEF1F81605F1041F21150AE7
:1028B00014262810041127372D1E201B0D0800FB9D
:1028C000F4EBDFE9F4E8EBF7F8F4E1D6EBFF06010F
:1028D000EAF6212E1D0A06F8F2EFE2D8D1D7DCEF96
:1028E000EBDDF0FF0B0BF5E3EFF8FEF7F81D3132EF
:1028F0002D261D1311FFEADFE6E3E1EFE7FC0D0CE7
:1029000009FAF1F1F9FAF4E5ED0A1D180500000FD6
:1029100010F7E7E2ECF1010401181C2B3922100634
:102920000601F9F40D2B2F2C261C141B09E4DDEFF6
:10293000EFEDE8E3040B040604020100F5F7F4EA06
:10294000FD16160DECE3040CE7C2BDBFCEDAD5EBE5
:1029500006F90B151309FBF3FD01FF0F1B2C342A9D
:102960000B0D1A03E4E6E4E3EBDCE400010B05FCE9
:102970000805FBEFF5EEF1F9071817FAEF141D083B
:10298000F1E6EE040404191F2B332D281502F80874
:1029900016191207223422040302EAE3DEDBE4F014
:1029A000E6EDF1F000F6010501F7F6FBFF0B02077B
:1029B0000F02ECEFFAF7E1D2C5D7EFF0FE000015F9
:1029C000160D0BFEF2EAF6081910051A2919040172
:1029D000F9F3EDD3C6DAE2EFFAFB0C0B03070EFABC
:1029E000F0EDE7F802080C1C1613191002F5ECE7DD
:1029F000F1FB081D242937342519FDF0F2F0000001
:102A00000B1D2927211B1506F3F2DACFDCDFE6EEDA
:102A1000FE0F1D1114190AF8E8EEEAF4F0F401149F
:102A20002117FECADFFDB0D8D2C1EEDDE4ED0E22E3
:102A3000383A4C3E440CFC332F1AED00F400F4DC21
:102A4000F8E4E4E2CCC7D5DDCED1D0EFE8D8D8D7D2
:102A5000F20A1F273226413F45351F1F1423121348
:102A60001731202A24F3F4F7FADBD6E2E1F510F966
:102A7000E0E8E4F219F9DDE2E5E4EDDCE7111E320D
:102A8000283A452B1A19010203F3F2FEFFE3ECEC9E
:102A9000D4C8BAD3D0D4C4CBEFEEFBD6E2E8F6F577
:102AA000FEE7DEFD050DFF070A28271E170F010BA5
:102AB000231706FC0C2F2B1811131D07DECBE2F297
:102AC000F1E1F8EBEDF3CEF5E9E4FFFEF907FAF2F8
:102AD0001105090211282E120402163B2D321C2D5D
:102AE00037372B2A2D0C06E7E4D5D1DEDDF3E4D40D
:102AF000D3DFF9F3CECAE7E9E8E6D6DBDDE6F30695
:102B000005F4EDF501EE060C1512070A0E1B16234F
:102B10001E1A1E1E08221A14FEEF02EFF7D8D7D293
:102B2000DDE8EBE9EAF3E8EDE1EDEFE9F4EEF402DC
:102B30000C070B181F333039313225231B0808F3DB
:102B40000E191C0D133232311BFAEFFDFFFFE2DAD2
:102B5000FF091406F4D9D2E8E3F3E5D0DEFAF8F77A
:102B600002FB0C13FEE7F0F604FEF3191D251822F4
:102B7000150C13EF02FEECDEEDE7E4F5FCF9EFDDFA
:102B8000C9E9F60AFDF10611170E04F0FF141F0A39
:102B9000F9F5F00DFDDFE3E804210FF0E1F313098F
:102BA000151316372F4436220E0D1D120CE0D4DFFC
:102BB000F6F5FCFEF206F3EEF606FF0609161B021A
:102BC0001004080224281829181F2118F7F0E8EA31
:102BD000EECBC1BCC9C5DAF5DFEBF40C160E010172
:102BE00014110CE7E3E6F509FFEDE7FAFFFEFCF34D
:102BF000EC0C16242E130C0A2419222C141A12057C
:102C0000F3E7DDE1F806EDD5D2D6EBE4E1EC030B1A
:102C1000FFFE020F0103101914151B0C24313A3169
:102C20002729191601F4EAE2FC261A1413031E09D7
:102C30000AFCEFFAF7F8E1EBF8F70010ECDED4C18C
:102C4000C3B4C1B8D8EFF50A040F07051013FEEAA4
:102C5000EDFA060E2B29243B2A291D161704FC0425
:102C6000FDE6FCE1E2DAE3DFD5E3E4E4CBE0C8D95A
:102C7000F10B09F002FD06151B0D132D2B302D3223
:102C800032242F36200105ECF3E9E6F4EB2119FD9F
:102C900000030B0D0B13FADEEEE8FCFB050C03182A
:102CA0001309F2FCF5F80804FBF606FEFCE5D9D79B
:102CB000CED8E2EFE9F9FEF5061314FFF4F6FD07AE
:102CC0000705000914F8F810FCFBFB0B0FF4FAE2FF
:102CD000EBF9EAE3DCF4FEEFE9F6EFF50410020DA0
:102CE000201B2A1F16121A1409040B14100502FDCA
:102CF000F9FDF1EBF0EFEAFC0B0E1818FD1D27149F
:102D0000020311FA09F0ED0A03F8F708150506FBAE
:102D1000F3F5EC0C070204EFF5F9DCE1E0EAF4E28C
:102D2000EFEF03F9EF15220A06FDEFF7FDF2EAFBDC
:102D3000F9E3DFF4F5E6F2FEFD0D170EF3071A28AE
:102D40002A231DFEFBEDF4EADCE9EDEBF303F101D0
:102D50000C0C140A1F07040304FBEAF4F4F8FA1934
:102D60000916242427252603F8FB0401FF0D11056D
:102D7000FB03FBFD0B0AFCF91704080E0D13F4F618
:102D8000FBE7E6EFE6CFD2E5F20508F6EE02FA023F
:102D9000E9D4DBDFD1D2EBE1FDFCF2F50908F60561
:102DA0000F1C1B20343A2B2F20FF0A0C0101FCEFD3
:102DB000E4EBEBFC04EDECE1D8DCE4CDB9D3D9EFE6
:102DC0000702FF0E2D2E30241B150A1F2309F613B0
:102DD0001C21322911182D2018FC06070C050203AE
:102DE000F20BFF0AFFFDEBD7EBE8ECC8C7D5DBE73A
:102DF000ECEFCDD4E9EEFDF5EDF407161E0F071B41
:102E0000131D29230C09181F2511F2E0F500F6E522
:102E1000DFE1DDEFF3F4EADCEEE9FDF8DED5D5E93C
:102E2000F1F8EBFD0D1B1C2022151A1D2C21241777
:102E30000A1A1913FA09121313130CF70D051207C6
:102E4000F1E4D1EBEEF3F80005050F1215050006CD
:102E5000080A0AFFEDFC0C141000FF001003F2DC5E
:102E6000D1EAF6F9EDF4F9050B09FCD9E3EBF3E54A
:102E7000E0DCDAEAF001F403030114161AFF040E91
:102E80000AFD0A0F0A1D0B1B121110F6060D11097F
:102E9000FDF5FF01F7F2DEE1F5FFF5E8ECEDF3FDFE
:102EA000FCF6E4EDF6020309130F323631241E144A
:102EB000150A0F20FC0604141F141E0D081B0D011B
:102EC000F8E6E7EFFC02F2E7F3E2E3D8CCCED6EC8B
:102ED000EAEAF0EBE5EEFA06F4F5F0F0FD03120392
:102EE00006210E11130B17091C1D2515080D0401D1
:102EF0000B04F3FEEEECD0D0DAD6EEEDECDCDEF235
:102F0000EEEAE7E0E1FA050C17171A1125282B3233
:102F10002C35222B2A28251F2417170D0901F9F714
:102F2000F7DDD3DCE7E9EFFEF1FC03090CF8FEF96D
:102F300003110D12FDFBF6F3EBF1F2F1F7FDFCFDD1
:102F400004FEFEF9F5F1EDE8E1D5E5EBFAEFFC154D
:102F5000141E150D0F171112FCF8FB010A000208D0
:102F6000FE04F5E8EBEBE9F1FEF600F7F9FCF9F306
:102F7000000B010908090B0C0C0B1514191915018C
:102F8000FDFEFD0BFC12181517181209110B04FF9A
:102F9000FDF1040F0A190C13201A07FAFEF4F7E7E3
:102FA000EAEBD5CACBD4C6DEE1E5F0E4F7FE0B00D0
:102FB00002062130190C0410FC0909021314040440
:102FC00006FBFEF1F8F1E1DEE1FCF9FAF4EA010BAF
:102FD000050406FB050A0601FCFCF9FBEEEBF3F029
:102FE0000007FDF8FAFF03070C181E110619211F30
:102FF0001E10192A2C272C17FFFEFA03F7E6CFD74D
:10300000F0EDF3DEEA0503F7FB040111141604F7F3
:10301000F7FBF6EAEFE0F20302F1F0F7E8F6FBF770
:10302000F8FCFDF6FEF8F609092025180D1006FE3D
:1030300000090AF3EEDDE9EAE3CFBFD4E5EEEFF2F3
:10304000FC08172D2B1A181916100512FE07280C4C
:10305000F7E7ECEAF405F9E9F4FD061711160C1987
:1030600033321E2110FA030E1A03FFF2EAEDEDECE3
:10307000DDE9FBFFFBFF06161525251010FF0704F1
:10308000F1EFE8E4FB0EFFECD9D2CCCFE1C9CDD40F
:10309000D8E3E6FAF700122F2F29291E1B22301B36
:1030A00019190B1506E9D4D4DBECFCE8ECF5F70AAA
:1030B000180AFAF7E7FBFCF1F1F2FF092714150DE6
:1030C000FEFC0701E1EDDBFD0F09091724203D306F
:1030D0001E0E0213262D180D0E1E1E0CF4DFE2D854
:1030E000F1E3D1D9D8ECFAF7E4E8E6ECF1E8ECF357
:1030F000070D1E1D160BF7FDF7FDF4F2E5DFF1F9E4
:10310000FEF9100F1C25160BF6FF0D160C06FD0A16
:10311000140EF7DCE6D5E2F0E3DBD0DEF303FAF6DB
:10312000EFF807FA01FD0E13212A1E1313111115D2
:103130000A09FAFF041314FE0006161F0B08ECE838
:103140000E211F150600111112E2E3E7DAF7F0ED88
:10315000EDF1FC060807FBEFF0ECE5F2FB000E1AC0
:10316000251B080CFDECF7E4E0D0CCDEEDF8FDFE0D
:103170000A1E190EF5F6FD120F151D120D070EFD94
:10318000DACDDBD6D8D3CAE3FE131112241501EE33
:10319000EAF0FA020D1B2D352122291B0901F7EA5D
:1031A000E8EF050C1B1717272A2DF5DEE2F20308BE
:1031B000141318171BFCF1DCD1E0D6E0D9E3FE169E
:1031C00014131E1D1502F5E7FF0A0205060F0CFE7B
:1031D000F0DDD4D0DDDECFD3E5F201110F171311EE
:1031E000FEECF91217151E30241F1DEED5D3D3D5D2
:1031F000D9DBE9F1010E070B161502F6F6E6F4101D
:1032000013181B191917FEEBE0F2F7020A00151844
:1032100013131B211E08F7F6EF0A0E11141F2918AD
:1032200012E9E2DFE1ECE5F9051E24291C0B0D048F
:1032300005E7E1D7E0F3F4FFFCF8F7F6DAD6D2D5EC
:10324000DCE1EFE6F6F80811181D090B05221A1B40
:1032500014081D1C2D1BFFDCD8D8E2E7EDF6EEFDAF
:10326000010905FEEAD6E5F6F2F600020B03F602C6
:10327000F1EDECE3F0FAFB09304036212123332A4B
:10328000160E0713201C0C1814060D15FAE4E3E0C3
:10329000E9E9F2FE070706FAE5E4E7D6DCFA00F50D
:1032A000F3000C0B03F9D7C6D6F2ECE3EEF5071DDD
:1032B0001F0C0F111B0BFD030E111D1CFE05091C1D
:1032C0001509E2BAC7CCD9E6F2F8F6F40D14FFEC12
:1032D000EBF3EB04191A16080D0C1B0EF2EAE905C4
:1032E00003FB0D212D3324130D0B1EFDF9FAFC06F3
:1032F000FE0D05090C1502F4E4CFDADFEEEAF30E59
:103300001D2217130B01F7F4FD0F1706FC01160B16
:1033100012FAD7C8CEF1F9EAE2F7F90700F3F3EAB7
:10332000F8F1F70A041B0BFE05F70B210E02E7DC90
:10333000EBEA070C0A2118160FF1F5F1DFDFDDF4D7
:10334000191600EAF2FE03FCDFCEE5F801150F2E98
:103350003B30341805050A0BF9030B131C1B120C28
:10336000111F16EFE4E5F2F6F7FD0D221D0DF9E74A
:10337000DED3D5E4E9F50B141A03F90801F6D1BC44
:10338000DAFD1311081329251A00ECE8DAF4E9F242
:1033900004FD0B0D040C141519E6DBE3EBF4F9083E
:1033A000F70F251A01F2E3DDDFCCDDF4080D07FE8F
:1033B000F1F8F7E8E1D9E3F5071A242D2A34342689
:1033C0001C160E12FF06211E1E1107FC0813FDE33A
:1033D000D6DFEF01FB0619152518FFF5ECE3E7E64C
:1033E000EF050C201603F2F1FBD8BDBDD5EF07FFAA
:1033F0000A1F15180505F0F0F2E3E3E905131F05B0
:10340000FBF60F17F4D4C4DDF006FF0F182E3E288C
:103410000EF1E9E0E6E0DFFC111C151201F4F4DE28
:10342000D4CFDBF317121A2C3A4633160A090408D4
:10343000F6F1FF151A090FFC021AFCD7C4D4E5FFF8
:10344000FF020C15363D2A0BF3EAEEFAFE011226B6
:10345000230B06FD00E3BFC3D1D5F1F5F3FFFE0D4D
:10346000070AF2E5EDEEF3EF010A1B0AFE0F091859
:103470000CE8CDDBE3FD02040F15251E14FCF3DF81
:10348000E9E400170C1C0F05F9EEFBE4C5B5CAF41E
:10349000111A061526312B141C1305060D161822B9
:1034A0002325210F08170BEBC8D0E80909FF1A1DC7
:1034B00031240AF5E4DBD3D8E7F91C2A301E09FDD4
:1034C0000300CCB6B4C4EF0BFCF5FC141E14F3EBF4
:1034D000EBF2F6F3FE03151B1825150B10ECDCC7F9
:1034E000CAEC080A06152A2C2404E7D3D0CED3E66A
:1034F000F3101A210DF7F202F2CBB6CCF41C200C1B
:103500001A2B3C372F1E07080C1511040820282001
:10351000150915F6DDCFC9DBFB01130A0C1D1010D0
:10352000E8DDDBE4E7E9F216192319FEF8F7F7E125
:10353000D3D1E10A2A160C081F1C1804F7E7E5EEA0
:10354000FB0EF704051017FBF1E2D3CEC2C4DEF781
:10355000081524361E12FBEADFE0E0F807091E25F5
:103560002B11FDF2EEE2D1C4E1F61E222525213217
:103570002B2B0EF5EEEDF90F030C1620291D09F883
:10358000EADECFD9E4EF091A202A292113F3E4DB7C
:10359000E3E4EF0A1A272E211C06FBE4D8C9B5CFB5
:1035A000E90809FFFF040406F1ECDFDDDFEF02FEAE
:1035B00008121F25190AF3EBE2D6ECFB0F1D22318E
:1035C0003C2F1EFAE5D7D4D8EBEEF3071114F4ED37
:1035D000EBE9D6C8C4DBF00B1E2023252B302D13BE
:1035E00000F7FE0305091524241B1E150900ECDE57
:1035F000E0EAFE1B211C241F1C0AEAE0D7E2E6ECED
:10360000FE15202B1805F6E7EADFD2C3D3E4020348
:10361000FA0106FF05FEEEEAEAFAFF0504162E3B64
:10362000230DF7FEF8DACDD3E504180D1A221B0E90
:1036300002DACEC8D2DFEAFB0218201101ECE5E87D
:10364000DDDADBE5022A2B2323282B2E1607F9EFE0
:10365000F8FD121D2D353022190A0AFEDBC9CEDF16
:10366000030F0F0D181601F7EBE3D4E3E6FD111E6F
:10367000312E15FEE8F102EAD6CACEDEF0020F0ABC
:103680000D04120AFAF2E9E4E0F7062327211103F8
:10369000F5F2F2E9E0D8E1EF06181B1B1905FBEE85
:1036A000E4E4E8E2F40715151415FDF7E9FCF9F672
:1036B000F2ECF0FA2428261D1519200EF4DDE2EABA
:1036C000FD151727211C1E0BFDF8F800F0FAF71462
:1036D00021130A010E0001EEE9E6F20B0D170A0BA9
:1036E00005F3F5E5E8F2EDD3C3C8E5040B02EDFA06
:1036F000FF1E0AF2DCDEF8FB1D1B2B211906F3FC72
:10370000FF0AFFF0E6E503211C00EDEDEF01FEF6F8
:10371000EBEAE8F4F9050FFFF3DCE9F4181C04E622
:10372000E1FA132C1E200E1417040803FEFE010EEE
:10373000242F37310FFFFB0B2411FDE1D3DEF2F70D
:10374000F4EBE4F6F60C100B07FEF8F707050FFD97
:10375000FAF6EA03F7F1EADCDDE9F3010AFF0D0509
:10376000FDFFEEF1F3F508050308FB02FAFD0D0B72
:103770001010FDFBF9FA00F7E8EBF0EC01EFE4DAEA
:10378000D4E1E5F5FBF9040C0F23251F1704FAFF1C
:103790000A222A170B05081F1D190AF2010B0F1523
:1037A0001006F9ECFF010C18FDE8D6D2E703FDF195
:1037B000EBEF0716251907FDF6F8080D110B01F9B7
:1037C000E5E8FC08FDE7D2E5021410FBE3D7D8E9F1
:1037D000F90200F1EEEAFB1020160C05FB121A1E8E
:1037E00014F7E6DBEDFF0E08F9FCFCFBFC03F9EC3B
:1037F000DDDDEE0E101813FAF4F8121C1801F000BB
:1038000006080AFF01F8FE0B2525171500F4FA003B
:10381000152C220AF6030D1403ECE1E1EE09121057
:1038200015130B09050401EEE1D7ECEEF3F0E2E726
:10383000E0EA040D01E8E6E4E7DFE0F4F807111937
:103840001B201C09F2F9F81C312A1C05111E1C054D
:10385000FBE3D8D5D6DDDFDEE3E8F3FAF705FEF0CB
:10386000E2D4EDFFFF01010A212B3337281800F1C4
:10387000F0F6FD15141717223B382709F3EDFD0468
:103880000505F6FCF7F3060A16FEE5E4D8ECFDF5AF
:1038900000FD0000041212F9DBD1CFE1F3050F1493
:1038A0000D060A2A1E01E1CAD4E1F7020F0303FF45
:1038B0000009120E01F4F4F5FD120F0AF4E8E2E734
:1038C000EEF7E1CAC7CDE3021C1902FA090C211672
:1038D00017FBED05122D36341D0E0A10111208FBD0
:1038E000EEEF0316242508E4E3E5EDFB03FBE8E532
:1038F000EDFB141F1B08FD000A14140DF5EFF4FC7A
:10390000140F06F4DCD9E3F6070C04F4EC000810FD
:1039100007EBCECDDBEF070906F7E9F3060C0E0542
:10392000FBEDFD191E272202F8F3FB101104F7DF4F
:10393000D9EFF90706F9DED1E1F1F5FAF3EDF5F883
:10394000102D332211FD062124190A000109272F09
:10395000260AE6E1E2EFFA040403F9F80A25280F43
:10396000F8E2EA0215130FFDFD1019221908EBDC2D
:10397000CEBFC9DAE9EDE7EF0525281500E5E8E552
:10398000F5FDFCF8F40410161204F6E5CCD2E508B7
:10399000131B0502171E261102EEE2DEE8F40A10E0
:1039A000120F0914140A03DBC0BCCAE0EF040E1A9C
:1039B000252E29241509FAFB050E1C2C37302C1E48
:1039C000110FFEEFE7D7D6DFF608100E0C101F1C04
:1039D0001000E5DFE2F6111812141405FDEDDBD33B
:1039E000CCC3B8C0D9F00509050D060B0A00FEF9D5
:1039F000F2F9071F28201C13130C0A04F5E2DFE07C
:103A0000E9F4F9F5FC040706F2E9E1DEE3E3ED0091
:103A10000C1409F8F4F40304F8F2E9F6081B282C56
:103A20002E2528272426160C08040603050A0C0B4D
:103A30000A0A09F5F0DCD4DDD5DEE2EF080F0E0648
:103A40000B1813140501090F110DFCF500FDFCFA0C
:103A5000EBE0E6DEE1DCE3F8050FFC0006040C0B0E
:103A6000FAF3F0E5F804162115160D01F2E8E4DB8F
:103A7000D3D5E3EFFBFAFD111112120A0808050570
:103A8000FE02131015100B090D08FFE8DCE8EE0824
:103A90000F140D0913130E09FBF1EEE8F80C1725AE
:103AA000251E23210C0403F5F3EFF4F6F0F90316B9
:103AB0001B130FFCF9ECDBD5E9EEF1FAF200060E70
:103AC00007FDE7DFE4EEF1F7FEF40201060C120851
:103AD000FCFFFD020510181A1219180704F9F3EF7C
:103AE000E5D3D3DAD7D1D8EA010600F6EAE8EE0545
:103AF00004060B0D1722232C3134311F1813180B19
:103B0000080A06FCFBFEF9F8FAFDFBF6EFF2FA04F0
:103B100009020917181D1304F7EEF3F7F3EEEEFA96
:103B200006FDFAEEE9F4F7F1EDF2F4FDEEEEEFFA50
:103B300014202308F7F8F9F6FCF1EBE8ECEAF006BC
:103B4000090DFEF6EFF4FAF2F501121714100D0D3F
:103B50001106FD00F7F7F8F3E6E2E9E9FCFDEDEA0E
:103B6000F0FE0201010713212A302F28230D0A0934
:103B7000FCFE04F6EDF4F504090A06FFFAF2F3F38D
:103B8000FF0F1006FF010E1C1D1620140705F2EA98
:103B9000E0DAE4F4EFE4E4E8DCDCE4E5F4FAFBF793
:103BA0000307151B0807FCF3FC05081002FCFC05C5
:103BB0000E141301FCF8F8FF0AFBF2F0E3EEF9FB38
:103BC00003FDF7F8E9E2DFE7E7EBFBF7010A07039C
:103BD0000C070F2C2D2728292C2D222A261709FA0D
:103BE000F6F7020501FEF2F1FDFBF0FDF6EEFAE854
:103BF000E6EEF2F6FB080F15170AFCF5F0FAFAFBF1
:103C000001FDF9FD06F2EBE6DAECF9FCFEFDFC0243
:103C100000FAFF090DFCF3F0F30908071306080D7D
:103C2000020703F9FDFAEFE5DDE5ECF6FE030A0312
:103C3000FDF2E4DFF90C100F04FF141A0707FC086B
:103C4000130E0F1421251F150C09110703FFECEEAD
:103C5000F5F70805030D03040701000505F4EBFB68
:103C6000FF01080608100BF4F1E2EAF4F5FDF3F2A7
:103C7000F3F1E7E7E5F4FE0201FF0206080B07F6A1
:103C8000F5E8EDFBF6F6F4FC0B0C0B0A1315150624
:103C900002FEF6EEE4ECF5F1F0F1F80C08FEEFE6CA
:103CA000E8F9FC060A0D0D050B05020207131D1DA0
:103CB00015182019120A0803FAFBF6E4E8F10102CC
:103CC000050BFE0000060B17130B04FCFCFBF9FAB6
:103CD000FDFCFEF7F501070D090F05FCFAF2EEE910
:103CE000E7DDEDFD0605FEEDEBE8EBEAE5ECF508BA
:103CF000111B140C0409090509F6FC0B000303034E
:103D000001FDFAF1EDE7E7F2F7F0E6DFE5F7070B83
:103D10001B16060800FF080A070B19292524211580
:103D20000F0404F6F0F8F6FC02080A1D200E02FE4D
:103D3000F5EFF3F4FAF7010C172412FCEADEDDD6F6
:103D4000DEF0F1F90411201F1E07F0E6E1DEE2EDDE
:103D5000061F1D1102FAF3EEE3E0D8E0EAEEFDFFE4
:103D6000060E141F1E0D0AFF0304070C060C05FFA8
:103D7000FD01FAF2ECDCCFD6E1EDE8F00E0A070027
:103D800007101C1907051021272E2B1D160E0605DE
:103D9000F3F0EBEE0307000103141A100CF9FDF623
:103DA000F5FD0D141407F9FBF5F5F3EADDE4E8F091
:103DB000F60A181A0FF5EDE2E1E6F2FC0314111011
:103DC0001000F7E5E3F0DED8DBEF0D13160A0A0C5E
:103DD000110C06060205F1EEFD0C1307FAF9EEE1EF
:103DE000DDE3EBE5EFEDF1020B0E0B16110AFCFB28
:103DF00006080D19232A3223141017120E02EEE6BC
:103E0000E8EFEF04070700F1F7F4F5F6F3FC090D0E
:103E10000A112422100BFEF6F2F2F80007030F0439
:103E200006FFF1E7DAD9DBE6DEE9FC07010800EB83
:103E3000E9EDF0F905070E06F9FD0B111911120B4A
:103E400002FF0409001109F5EFF4F4FB01EEE4DFD1
:103E5000DDE8F0ECF5FB0005FBF0F30A090C0D0BB7
:103E600018272728382C221E140E04FE0003FEF902
:103E7000F9FA030B01F8FCF9EAE1E5FB17140A0B68
:103E8000FFFBFEFDF7F4F5F5FAFF0417171110FB21
:103E9000E1DADEE3F2E9E8F1FAFAF5F2F5FAFBF934
:103EA000FDFCFF0C0508111B15171306080400F292
:103EB000E0DEE4ECF6F4FBF7F1ECECF7F0FC0400E8
:103EC000FCFE0C142923190C01070C0D0B110E0B11
:103ED0000C080718130600F9F3F6F8EDF7010915B9
:103EE000111606F0F0F5FBF70201F4FEFAF80811DE
:103EF0000F05FDF10B180B0B01FBF7F2F0FDFBF9C1
:103F0000F1EBEBFC02EDEBE5DBDDEAEB0101EDE7CC
:103F1000E6EEF2FE040C0B0D212A2A2B1F0B1824AF
:103F20001C160DF5EAF2F1F7FAF5EFE7DAE6FAFB1F
:103F3000FAFCF0EBEFEEFF00F0F2F3ECFD0B050303
:103F4000FFFC020C14120EFCF80B182C341D161674
:103F50000B1C1E131D2F2111060603F5EBD7E5F5EB
:103F6000FD0800FAFAE9EEFDFEF2E3D9EAF7F4F60D
:103F7000F8F8E9E4E3EBFD09FB0807121900FAFB86
:103F8000090C161117180801FDFAF8F6FAFCF3EC03
:103F9000E4EFEBE4DDD1D1E0E4E0E4EBF6F2FC00A9
:103FA000F1F50504020B10141726242F34291F1FC6
:103FB000231F2710060A080F131A190E13110C10CD
:103FC0000B0F0D1009F4F6F5EFF1EAEAEDF3F6EB5D
:103FD000DFE0E8E7EAF5F5F4FB01FF0A1200FAE991
:103FE000E6F4FD060A0A04FEF5F7FFFAEAE9F1F243
:103FF000F5F5F3F9FFE7D4DEEEF8F7F5EFF1FC00A5
:10400000F3F703070B14150B161C141A190A0F19D2
:104010001B1D23262C2B24180F19190E0400F9EE52
:10402000E7E7EBF2EEE7E7E7E4EEF1F5F6EAF707AC
:10403000FDFEFFF9FDF6F4F7111818211A13130B02
:104040000704F8F9F8F7FD01F7F5FCF9E9EDF7EEEB
:10405000EAEAEBF2FCFAEAE4E7F3FF0A0F080807E2
:104060000304FBF3F8040AFCF7F50009FCF2F60779
:104070000C0A01040D04FAFAF5F3F0F70A1209121A
:104080001A15140A18181104FB050A0802FDFFF797
:10409000EBFE0500FDFD06150D01080B1E14FE05C7
:1040A00004F8EDF2F90519190CFEF3FA01F9F6F22C
:1040B000EAE1E9ECF4EDE5E5DEE5E1E3F0F9F9004C
:1040C000FCFC0C170A0E1310121414061207F8F455
:1040D000FE050C0C010202FAEBE2DFE2E8F1FD045E
:1040E000F9F9F1F30302F4F4040701FA1020231B99
:1040F00013151B160E0C1110FAFB01020005040922
:1041000009FB000608060C0D0F0F04FF05F9F5006A
:10411000FA0101F90005EFEFF0F0F3ECEEF3FCF734
:10412000F2DEE1EDF1F7FEFFFDFEECF10C0F0C10FD
:104130000F151912111318160C00F2E4D3D3E1F481
:10414000F1EFF7F7F8F0F6F9FD080A0F060508FF9A
:10415000FA02FFF805FCF9070809FF001E2E231FCD
:10416000110D1207040C150C0D1719040708060D84
:10417000E6D8E0D9E5F1EA010E01F7F3F1EDF0FA46
:10418000091517070B0D0C20140B02D3CDD9CAD17A
:10419000E0E5FE09FF0B140A0AF9F3F7FB010B181F
:1041A0000F09131005F8E5F2EBD9E0FA111C170D11
:1041B0000DFDF4F3F3F4FC040D0E03F7F1030BFE15
:1041C000EEEC02FCEDEF0B232C2B29280DF9041447
:1041D00014120508FFFAFEFF0809F2C9DCF6F4F232
:1041E000F802120E00070B06F5F8051418222F1C12
:1041F00003FEFCFE0DEAD1E0DFE3E1EBFEFDEDF2B4
:1042000002FDF4E7E8F4F6F61020160702F5FC06C6
:10421000E8E2EEE9E0EA0024281B1511FDE7EAF7E1
:104220000F05030F2518FF04F5F2E4C5D1F1E5E60B
:10423000F9092C2F2429301BFCFB0919120E1D2E05
:104240001B0A1B0D03EBC2CEF2F4EEFB07160C02A9
:10425000161BFED8D3E603141D29301C0A110802D0
:10426000DDBACCDAD4D2E2EFFFF9F40B0C00E3EACA
:104270000005121E312C1A0F19211EF7CCD8E3D7D6
:10428000DDFB0A1204FE1005EED6D7E7E8F0FB13BB
:104290001F150C070407E1BDE1F6EDF00D1D2A27FF
:1042A0001F3F3313FDF00902EC0828281D171A1EC2
:1042B00010E1C5E3ECD0E303131B070D2917EDD77D
:1042C000D6F7FBF20A28281A181A181DF8BED0DEF5
:1042D000C9D9F7FDFEE9F40F0DF4E2DEEEF6E200D7
:1042E0001C2417070D1514F7D4DDF3DDE60E201C92
:1042F0000B0B1F2207DDD7EBDED9F20F1B1B04FDD2
:104300000203ECDCE5F4E5DC041D231D2724211267
:10431000F3F30B0AF708211E2A241C200CF1D8E124
:10432000EBECE5FD1E211E161910FDE2D8F3F3E7B4
:10433000FB060B1F1F110B06E0C2D8E5DFD7EAFF13
:104340000302FC0D0CFCECD9F1F8F50E2118151642
:104350000D1917FAD2DCE7E2E9F91723211A181030
:10436000F9E1D7DEE8E0F507060F07FDF9FEF2D028
:10437000DBF2E6F60A1D2D292D2B26190CFCFF0277
:10438000F5061F2022160E0708FBCCDAF8E7E4FA40
:104390000B2A29202516F5DCCEDDF0E7F30C171EDD
:1043A0001E16151004D4D1F6E4DDF1F208150D192E
:1043B0001203E5CFDEE9E1EA0711171A170F18100B
:1043C000D4C9E1DFDBFD0F1727202B2E1BFAD7D72F
:1043D000ECE5E903090B0B01FC000ADFC6EBF0DF9B
:1043E000F3111C2E25292E2011EBE6FCF8F50D1BF0
:1043F000151B140B0D18F5CCEAF1DEE90311231A95
:10440000121C1002E7DBF1FCF8081B1B23170A093A
:104410000DF6CBE5F9D6CFEBF407FFF90F0DFAE374
:10442000D1E7F1EBFD14171413030609FDD2D2F7FF
:10443000EFE30311242A111B1702ECD8E1EEEBF590
:10444000070C0B04F1FCF8F8DACCFDFAE4F40C28C4
:10445000341D2134260DFCF60E00F51524261B0212
:104460000C0803EFC7F006E5EA021A2D170A170B2E
:10447000F9ECDBF2F5EBFD12181408060CFDFAD38B
:10448000D0F9E4D9F1F40F12FB150EFBEFD9E4F2E9
:10449000EDF71621190A070D05FBE3C6EDF5E8FC5B
:1044A00007212D120E1C08F7E1DCE8F1EAF103FF09
:1044B000FEF9FB01FDFAE4DEFAFDFD091C312D1DBC
:1044C0002920140DFBEE040A051C19161604FCF82D
:1044D000ECFDE9DCEDE9F303131F1A120D0A01F8F4
:1044E000E3F00C00070F161E0E0405F3FFF0CAD907
:1044F000DAD4E3ECFD0AFAFB05FEF4E3DDFE090B7A
:104500000B1526190F06FBF40CF0DBFE02070D104D
:1045100024200E0E01F0E4D6D7EBF2E9F0050602F6
:10452000F6EEF1000AE3DEF6FF0B18222A29201F1F
:104530001201F9F6FD0A070218231811FBEDEFFE30
:10454000F3CFE1F1F90A10121C1715120600F4E975
:10455000F1FFF608131116FFF3EEFA0AE0C2E0EFDE
:10456000F2F5FD141E0A01FDF5FCECEE08F9F70961
:10457000151C0CF5F2060D04DBD8FDFE05FEFD1042
:1045800009F8F9F6F4EFD9DADFE0F7101D1B05FCA6
:104590001112190CE6F604060E111E2B190609025B
:1045A00008FDEFFFFBFA0A172007F305100A0DEECE
:1045B000DCFAFAF500031611FF070D0801F3E8F421
:1045C000EDF918291C020104FAFEF9D3E1EADFEC47
:1045D000EEF807FFFB02FEFBFCECF3F6F7121A12F3
:1045E000FAFB01070D1B05E7EFF0F9FE040B0BF6D4
:1045F000F700F9FAEBE2E5E5F510190D05050207FC
:104600000B0DF9F1FBFF090E110F08000F110F0F31
:1046100007FBF9FD0F1B0D0BFDFE05081A1BF6EC41
:10462000F1F1FC040A0F01FB04F6FDFBECF7FCFFC3
:104630000B0B0F0AFCF9F8F601EDD9F5F6ECF5F5E0
:10464000FAF9F204050505F7F60200FAFE0609027A
:104650000002020F18EDEF07F8F8FBF3F6F2EFF7A0
:10466000EDE3E3E7F605FDFF06130F080C121B1D33
:1046700010FA0D07FF0C0B0504FD0519100B0602BF
:104680000BFFECF9050C07FAFF02FE04E3E801EE6C
:10469000F601020804FC100B070900091104050AC1
:1046A0001313FAF2F0EEFBF7D1DFE6DAE4E9F1F505
:1046B000EAF300000200FA0104F5FE15261E1811A7
:1046C0000F0C1402F912FDEDF6F5F1EFE2E4F4F44B
:1046D000F2EBED00F1ED0619100E0101090B14EDDE
:1046E000070DEFFAFF03120C041B1E1702F5050B52
:1046F000F8071A171C0C090F020CFAE605FBECF67A
:10470000F5FF03E8F4090804F1FAFFEFF90C0E04D1
:10471000F7EFF4F7F903E4E5FAE6EBF6F201FDF75B
:104720000E120AF6F7FBF7FD111F23160A0B0704FA
:104730001208E4EFE3D2E0E2EFF2E0E5FD00F9FA7F
:10474000F7F1FB040F2626201C1D1C1C2506EDFB83
:10475000F2EFFAFF0E0D05111303FCF4E7EFF2F68A
:1047600014181A100400FD1315EDEBFCECEEF9051E
:104770001306020E0E06F9F4F6FDF4FC0A130F07F9
:1047800007030506F1CBE4E9D5E0EA030E0C0B0FB5
:1047900009F1F0EEF5F4EE01182212110E0E0E09D9
:1047A000E1D2E9D7D3DAE3F00103162305F6F6F9EF
:1047B00000FEFE111E1A1E1E27251603D9E6F1E97A
:1047C000E6EF0315140A251600FEF4F5F5F60912B6
:1047D00014110B121E181001E0EBF3EEEEF5000CB5
:1047E0000D191E0AFDE8E3E1E6EDFE0305FC0314E6
:1047F00002F8FCE9CEDBE1DCE2FA090D050E090363
:1048000003FF01F5040713201C12171A120800DE1B
:10481000D3E4DBD1DBF1FF08060A0501F3FBF9FB6A
:1048200002FF101E1E131D0C060B0CF5EA06F9F410
:1048300003131E1502040F02030AFBFEF6F108180B
:104840001211180B0C09FEDADEF0E7E7F309080392
:10485000F80CFFEE0203FCFAEFF3120FFE0BFEF36F
:10486000F5F7FBE2E8F5EDE6FB0E03F5FC06010DBE
:104870001D11FC00FE07110C0C1206FBF6F6E9CD2B
:10488000DCF1DED6E7F8F0EBF7080A152316121272
:10489000131C1C101A1A070406180EF2090DF3EF68
:1048A0000300ECF0FB0C0A0D06F3F701FE000A060C
:1048B00011140B0C0E1604F00A13E3E1F9EEDEDA24
:1048C000FA0B0B0B0C0AF9FBF6F9FEFDF8F0F0F50C
:1048D000080B0AEEEEFCE5E6EAE3E5F70E251A061C
:1048E000151004040205FBFF0203FAF2061010F093
:1048F000EFF5DED3DBDCE1F1FC10191D1F11FDFB30
:104900000E130D0705100E0F232113FFFB0AFBDB0F
:10491000DAF5FB080B0805FF101707010AFE01076F
:104920000F0C040E1B1B1304EBF2E8CBD2E8E5E2FC
:10493000EF020BF7FA02EFEFFDF9EBF50A0A161694
:104940001009091B04F1EFE8E3FC0CFDFE0004056F
:10495000040306EFF5F8E3EFF4FC0305080E050485
:10496000F8DDF5FBE6EFFAFB030F1114000F260844
:104970000904080F151F1E1C08161C150CECE7FF78
:10498000F3D1E1E6DFEAF704FD07141D0905140081
:1049900005151F11111207FDFF0BF20201E0DAEA03
:1049A000F0DDE4F1FEFD020CF8EF0508F1FB02FD7D
:1049B000060509090A1722FDF9F9CED6E8E3D8E57C
:1049C000F5FF01011A11000A05F3F60904FB0111B4
:1049D0001A222F20070200E1CAE0DFDDF80F0A02E9
:1049E0001D2A220807FBEBFF0204FC1727181B23D4
:1049F0001EEDF0F6DFD3E0F9F2F90524292A2B0E9B
:104A000008F7F8DFDFFAFE1116240E13130DF9CAAA
:104A1000D7CDC6D0E6D6CFFE0D1109170CF5EDF5B2
:104A2000FDEC111D1823272D121505FFEDD5DCD443
:104A3000D0C8F0ECF903F80EFEF2E7E7DDFE130450
:104A4000141D2A221F1D1709FA0C05F7F4F5F3FCB3
:104A50001504020B08F9F700040AF60A0B08190EF0
:104A60000E161F130D070105FFF9FD04E1DD00E738
:104A7000E6E1E5F3FA0B120CF50A0D03FB0707FA62
:104A8000040300E9E8F7FFECF30AEAD2E5F7F3F1F3
:104A900004040C20271E00060F06F504FDDEEFFEC1
:104AA0000BFCF8F702F9E1E2D6D7DFFB00FC1015AA
:104AB0000D111D161B1A121D130F0E131516201E95
:104AC0000EF701FEFDEEE3F1D5E404F9E7F200FD97
:104AD0000B18230DFE101607F60A08060808EFE863
:104AE0000C0808FCF5EEF2EDE7ECE1F2F1FE02FB5A
:104AF000F0E4FAFBFB100FF9FE030B16101E13F97E
:104B0000070F02FAF3EAF3E9DCE4F0F4F2FEE9EA73
:104B1000F8FF0802FDF5F7FF0F1D15040B0D0C1132
:104B2000070B1821131615F2EFF6F9FFFE02FCFD34
:104B3000070A010209050602FCEBF60C0D141D061E
:104B4000071E192207F4F9F4E3E3E9E3ECF507099A
:104B50000A06F90602F6F8DCE705F9000DF9EBF3B1
:104B6000F6F8FDFAF8F5F605FDEBF40C0CFE0D0277
:104B7000EDF3FCFFFF03EEFC04030DFBF800010165
:104B800004F2F50810161709F5FA01F9F9F8F0F230
:104B900004090D08010A0D0AFF10FFF80B020B02B1
:104BA000F90B1712170E000A0607FE04FCE6080DA3
:104BB000FBF5F3EDEFF6FBF7E1F601090A1213FA44
:104BC0000C0609FDF2F6F702F8FDE8E7F1F7E1D689
:104BD000E1D5EEF804100E0B1B3227190701FCF784
:104BE000FEFD02F40C12010DFEF1DFEDEEDCCFE074
:104BF000E6DFFBF0F7ECF91C0B080F1116322D3134
:104C00002112291D22181000F603FEF9F300FF07F8
:104C100000F4F1DDE6EAEBEEF6F20217111F2110C7
:104C2000F7F4FAF7EFF001FE131406020816050A6E
:104C300001E9E2E7E7E4DDCDD9ECFAF7F5F0F713A7
:104C400014191E1A141818130EF90803FA02FCF3AB
:104C5000F1F6F3F3EEEDDAD0E2E0DCE0F00D101265
:104C600019F8F6120D1E21211F1D2A2C260E04FDF7
:104C700001F8EFE5EE03FF00151BFEFDFDE9D9DCB1
:104C8000ECF1F70615121E372F281E05F5E7EFF891
:104C9000F2EBF60D1B1B1601F4F9ECF0F9F8E9DA6A
:104CA000F5F9E3DCE8F2F0E4E6DBD9FE0306172DC4
:104CB00033221F19FFF0F0F0EEF2F8EFF20C180FAC
:104CC0001719F0E1D7DAD9CEDAE8F80619070A148D
:104CD0000F10171D0D0F161D0A0D100F1C130EF1CE
:104CE000F804FEECF10B020B0E09F4EEF4F1F8F609
:104CF000FFF5F80716120E1D0CFDF0F4EDEDEFF4C4
:104D00000204170A0506090C0917FBEC00FDDED9A1
:104D1000E7EEEBE5F7E1E5FBFDFAF0040C0F191FF8
:104D200002FE03010A0612010C1409020009F7F63B
:104D3000EAE8D7D8E5E9E7EB08EEEDF4FFFF041366
:104D40001B191B2A0E110E172117250F0C0F03F725
:104D5000EEF1F7F8FA0FF8F2FB0808FF03F3020F81
:104D600016FEF200FDFCFE10F5EBF8FEF8FF110553
:104D7000110C0F000408FEFDEEF7DFE2EEF4EEFD8D
:104D800007F107FFFFE9E0E3DDEEFD11F9FFFD0BA1
:104D9000080411F700FF160D130A0A16FB14FCFA9B
:104DA000F0F0E9E2EBE404FA150B06110B0EFE0538
:104DB000F4F9EF08070820142E272A0BFFFCECF863
:104DC000F70CFC00FC030C0C16010C0B0EFAF6FEA3
:104DD000EDF6000EFEFAF5F1E7E0EADFF4EF06008B
:104DE00005150615FD03F7F6F1F5FAFAFFFD1212A7
:104DF000230D01FEF3F4F600F3F3EAF1E3E2F1E749
:104E0000F1F409F8EEFCFDFFFF0F08070907F7F8BA
:104E100001FA02070F03020E121516160A080208FD
:104E200005040DFF02081405F2F6EFE8EDFBF9F8B2
:104E3000F8040402080207081A1200080606FC0E0D
:104E40000E13120F0AF9FBF901FD06FEF3EDEEF267
:104E5000E8EADBD7D6D5D6D7ECF9010222240C112B
:104E60000E1009190E080C0D0F0A110506FC05029B
:104E7000EFEAE7F2EDF2E2E3F4EFF1EFEDDEE7EA7D
:104E8000040BFD0B03161A18140D1810130F110E36
:104E90001A1F23321D10FF04F4F3EEE7EFE8EFF0E2
:104EA000FEFB09040B15FCFBECF3F600FDF0FF091B
:104EB0000D0A16040402081805070206060BEEDBAD
:104EC000E4E5F0E5ECE0E7F4031C0F130503000351
:104ED000F4E1F2FAF9EEFFF7FBFE07190406FFFD15
:104EE000F801FAEDF3F501F7FAECEEF5FF1C060216
:104EF0000708111F19040605130E0E03FD090819F2
:104F000009070705FD0E07E4F5FE05F7FFFDF4FBB5
:104F100003190C0C05FDF5F5FEE7EDFB07090C0187
:104F2000F908091E100A08F7F7FCFDE1DCE6F0EECF
:104F3000E7EBDFF0FD0C0C030704030513F0E9F3C6
:104F4000F8F8EDFBF4FD0716100E1B0E0E040CEF27
:104F5000D9E8F5FBE8F1E6E9F0020DFF0A090807D8
:104F60001702F0020F140D14FF000B0F0F03140FA4
:104F700004020FFDEF03050AF7F8F6F40509120A1B
:104F80000D0D07051205F0F7FB07F5F6F2EBFD0036
:104F900005FD010701FA03FAD3DDF2FDF5EFF5E9AE
:104FA000F905090612140A040500E9F9FF01F8F6EB
:104FB000FAEBF6FFFCFA060F09FDF902EFEEF8FD39
:104FC000FEEDEDDAE5FF07090D16161A1E1D0300AA
:104FD0000B09181009F8FC1305FE0416140C010542
:104FE000F2E400FD00F5FBFBED0202FBFF13140DE4
:104FF000050C07F302FE0903FDF7EE04070C081089
:1050000006FCFDECDECDE6E7EDFAF5F7EF0C100F50
:105010000D0A110B07F6EFEF03FFF700FBFFE7ECBC
:10502000F7F8FE04130C0C0305F8FBF8E9F6EDECB9
:10503000E0EB030D16171F1D1C0DFFF2EAFCFD042B
:105040000B0F080A17171E1A1E1608FBF2F8F301B9
:105050000300070700F2FBF30204F9040307010A47
:1050600000FAF5F5FAEEECE6F7FF0F1E1016140342
:10507000EFEADDD4DFDCE7E8F0FC070D171B0B10CF
:1050800009FDEFFAFAE9FD010A0D0600F8F2FC0D40
:105090000702FDFBFB0208F4F4F1EDE5E1E1E3F3C7
:1050A000011C1A17232014120DFAF4F902FBFE0852
:1050B0000A04122721160D0DF5F3FDF2EFF5FEFCA3
:1050C000FCF6FFF8FC0901FFFB08060C120D00FAC4
:1050D000070404F9F4F0FB0C11170C0AF7EFF4E8DD
:1050E000E7DDE3E5E0E7F0F8FC13160F070A06F941
:1050F000FDF9F7EBFF04FF02FEFAEF050C04F8FBE5
:1051000001FC05FF03F4F0F4EBECEAEBF40C1017F0
:105110001E221E14140707FAF804070A0103FD14DF
:105120001B0E130701F7F2EAF6EDED03FFFEF7FEA3
:10513000FD03100F0A0C12171A0C140EFD0502F8CD
:10514000EFEDE9EEFDFCFFFCFAF4F5ECE6ECDFEC4C
:10515000F1F4F6F4FCFD14160F150D090AFEF3F92F
:10516000EEF7061307EEF7F90702010C0504080035
:10517000F501F0EBEDE8E9D8EBF4FB0B0B181A1591
:105180001510FF0701FC110B10FC010C10271A1B56
:105190001107FB03F7E7F1EF00FC08FDFCFCEF054E
:1051A000FF0E0F0B17160C020AFD00FC01F1DEF4D6
:1051B000ECF9FCFEF9F5F6F6EBDBF2E5F0F4FAFFBC
:1051C000E9080815211819120CFEFEEFF9F7F30390
:1051D000FDFFE5E8EBEDFAFA0601010011FEF0F142
:1051E000EDF2EE04EFF7FE000F0D1A11120D0AFAA0
:1051F000F304000B12190A03160F221D120AFDF9FF
:10520000F4EBDFF9EDF4FB03FDE5F4EF000A141312
:105210001D1A1615FD11FEF7FEF8FBEBF6FA040554
:10522000FD030201F7F6E1DFE1E3F4FB02F9030518
:105230000E1718160D01F5F6E6F6F2EB020606EF6C
:10524000E9EAE9F401080000FE05F7F4F9EFFE05CC
:1052500000F9F7F8FC0A0A0D131719190A080700D4
:10526000100E070206060911150F0705F5FCF5EAF1
:10527000F3E9EC020608FCEEF4FF0B11191412100E
:10528000070202070B1A1903FAF9F3EFF5EEF3FA26
:10529000F2F6EADFDFDCE0F2F1EEF3F5F9031B18DA
:1052A0001B170C060B06F7FFF30807FAF7EDF2F9E8
:1052B000110D0B0A080C02F6E3E7E9F201FF01F316
:1052C000F2F9FE04121516180807FA06070F180956
:1052D0000A0406FF0C090502FD0B0405FAF4F2FEB0
:1052E00006FAF6EDE9F10B16121113150C0C02FC7F
:1052F000F9FF01F9FAFBF5F404F9FFFDF601EDE918
:10530000DCD2DCE6F8020500FC0414120E01000AEF
:105310000603FBF5F301060BF8F3F5EDFDF90501C6
:10532000000B040800F4EAF3F8ECECEAF3F3FF0FE7
:1053300014171015131406FFFA01080810141003AF
:1053400011100B04FD0A0604FDF3F4010500FFF83B
:10535000FAEAFD03F1FBF7060B0C11080606080C30
:105360000BFDF2F8F8FBF90204F4F1EAECEAECEADE
:10537000F900F8F600120A0F0E0A0C06020804F4EF
:10538000F2F5FFFAF8FAECF1E9EEF4F9FCF7FCFAC1
:1053900010FDFE05FCFAF0FFF5FEFF0C120D120ADF
:1053A000150E0A02FF0503030B07F804040A0E0892
:1053B000120905F8FCFC0100FA03FA0DF9FF01FCE3
:1053C00001F8FCF2FCFD090E10120A0F0F0AFDFC99
:1053D0000301FCFCFEF7F0EFF5EDE9F3F2F4EDEF7D
:1053E000F1F8FF0108050C00FEFAFCFEF0F4FBFDED
:1053F0000409060907070C0802F4EDF8EFF4FCFCB9
:10540000FEF3FBF9F9FD09060A0E0809030A0B046D
:105410000C11100AFD05FBF7FAFC0B0F0D07060433
:10542000FD03F9F6F4EDFDF8060006150C110D0963
:105430000100FCFCFD0210070502F706FF0702E869
:10544000F4F0E5E4E1E7F9F7FEFAFD04F7F900FC12
:10545000040D0B11FA020300FFF8FE0001F900FA37
:105460000609060BF7F8FBF9FAECEBF0F4F3E8E3C6
:10547000E8F9FFFE010608060808FF060D192517C2
:105480001410130A07070D0C050C030AFEFF01F5A3
:10549000F8FCF7F6F0ECF4FA020002FD0104060451
:1054A0000D17171A0BFBF5FD0A0E00FDF8F6F3F2C7
:1054B000F0EDECECF2FE00F9F7F2F5EFF6000B037D
:1054C00000F7F5F7F601F805FFFE060F13110800C7
:1054D000F9F30107FFF5F1F1F8FF03F6F4EFF2FE3F
:1054E000060F0E03FBF4F8050A160F1302030B0850
:1054F000120608040C10181608FAEEF5EEFC05F575
:10550000F9F5F3FE0206FDF5F6FF05101015150876
:105510000E060910100403F8F8FBF5FDEAECEAE9C1
:10552000F9FDFCEEE4E0E4E9FB070308FBF9020304
:10553000FFF9FCFB0309181F180A04000002000809
:10554000FDF6EBE8FEFAFBF6EBEAF5FC010701FDE0
:10555000EFF7070A1416100C090C0E0E09FFF702DC
:105560000A161E171005F8F9010005F9F3F3F2F019
:10557000F70600FEF9FF050706FE02FAFC060B100F
:105580000703F7F3F3F4F7F4F6F0F1F6080C04046C
:10559000F7E9F3F60008FFFFF800FD0A0B00FBF245
:1055A000F9020C0C04FEF0EFFA010D03FBECE5E14F
:1055B000E9FAF4F6E8EDF90212100D05010E0E17E6
:1055C0001B0905FF01060E0D09FCF707060D130E5A
:1055D00004F8FAFF041502F9F3E9F3F6FEFEF9F018
:1055E000010C141715100702040914130003F2F03C
:1055F000F4F6FD00EEECF5F5FBF6F7EDEFF0F4F464
:105600000502F9FAF301FC010C01F4F8030F101084
:105610000AFDFBFEFC0106FFF9ECEDF4F6F9FFF0E4
:10562000F1EEF4050308FC00FF070E1A1D0C07F24B
:10563000F8FC04100501FE070D10121108020A0300
:10564000080A05F9F2F3F1F9FA02F4F5F6FD0B098F
:105650001000FFF9050D151B0404F3F7F8FD03FA1C
:10566000F9F4010A0D0400F5EDF5F5FD0001F5F181
:10567000EDE9F6FA08FCF7F8FF090616070400083A
:1056800006030CF4F2EEEDF1F2F5F4F6F902090A74
:1056900002FFFCF702071014170700F8F300FE08DA
:1056A000FE00FA0414100FFFFDFF0C120B05FEFAAA
:1056B000F5F3FCFEFC010204010306080BFFFC00ED
:1056C000080C07100C05FEF7FDF9F5F3FBFC0105CE
:1056D000FEFBE8E4EDF502FBF0F3F4FCF7F8FAF773
:1056E000000607FE02040A0D080404080B0704FC68
:1056F000F9FAEDF5F4EEEDF3F8F4F5F7F7F2F0FF63
:10570000080C0E0C110D0A02F9F5F0F90A110C0F34
:105710001618130806120F100F02FCF3F7F7F5F135
:10572000EDEFF907050203090B040C130D08070739
:105730000B00FAF5ECEFF200080E090805FFFBED8F
:10574000F2F1F4F4EFF0F4FAFFF9EDF5F9030C04DB
:10575000FCF9F6FF0B09100F0508FBFCFBF2F8E95A
:10576000E7E8F00003FC0302F6FDF4FA0201080C7E
:105770000E19151109FA03030D150A0503000B1381
:105780001111150E0801F4F2EDF0E7E3E7F5060557
:10579000050403FC010C0C0E0C0A0F0D0D110B0679
:1057A000F3E6EAF30204FF02FAFD01FBFAF9F8F16D
:1057B000F2EEF3F0F7FCF2FC0615170BFDF7F4F927
:1057C0000204080F0D0700F8FFFDF8EDE1E7F4FC17
:1057D0000003FFFEF6030E02FBFEFBFD0407100CA8
:1057E0000AF9F0FF020A07FFFDF9F80C130E191968
:1057F000111004F8F8F3F0E6F0FE060F0800FDFDC6
:105800000C190E010000FD0A040A07FAFAEEF7F47B
:105810000003FDFFF5F80208FEFBFAF3F8EFEDF5E3
:10582000EEEDE6F202060D080904F9040E06020385
:10583000070006FFFBFDF2F9F0F7F3EDF3F3F3EAEF
:10584000EFF806060305050A0E0D0F03FCF6FA092C
:105850000C0E10130A04030C0802050704030802C7
:105860000A00FCF5F2F3F0F6FCFDF2FE0A161D1339
:105870000F0D030503FDFDF5F5F7FD06000004021D
:10588000FF0002FEFBF5F8F3ECFBF9F5EFECEAE9BB
:10589000F4FC0504FFF9FB030D0E010508010408E3
:1058A00002FFFBFAFFFCF8F6FBFAF8F6FC03020332
:1058B000FB0204FC05060402F7F901FF04070201DC
:1058C0000205070A0C04FC0305010402FDF5F4F9C6
:1058D000F9F6FD06090D0B0D1621251D1A160E08E9
:1058E0000A07FEF6F2F8FAF2FAFCF3F7EEF6F2ED3A
:1058F000F2EFF8F4F1F8F6F6E8E6EAE9F2EFFCFD8B
:10590000FCFBFD0C0D0D07FCFB0702020D0F04074D
:105910001311100E171107040B08FDFDF8F7F5F72A
:10592000F2FBF8E9EAE4EDEBF1FCFD01FE100E0DEF
:10593000130C07070C03060405EEF100F0F0EEE986
:10594000F4ECE5030A131016201A212026281B1850
:105950000C090F05090808F9FD00FBFEEFEDECF15D
:10596000F5EEEDEFDEDDDEE1E5E3EEF5F4EF080B5D
:10597000090BFE01FEFEF9FF06F1F8FBF2FFFCF950
:10598000F8FCFD0514191C0F0A16090C150D14015D
:10599000FAFF00FBF9FD0600F4FB000300FBFEFE2E
:1059A000FAFE0006FCF5FAFDF0F2F1E1F2E7F0FF95
:1059B000F90100030E091C231929171D241C252297
:1059C0001D1D1912110808FDE9E2DEDCE9ECEAE927
:1059D000DAD1D8DBE0E5F1F9E704090614080D1285
:1059E00008FBF80501E8F2F2EFF1ECEFFAFB001129
:1059F00010151C1416110B2018120C0D05030503AD
:105A000000F0E7E0F8F7FB03FA040204FAF407F801
:105A1000E3E7E6E5E2E1F9FFF4F5021915202A2CA7
:105A200027212D292A211B100504F8EFEFF3F1F4AB
:105A3000F4FCF1ECF9F204FDFB0AF9F5F4E2D6E529
:105A4000DFE0E6E5F5F4050B0B1502030E13222348
:105A5000161D1810140B03FEF8EFEBEDFAE8E8FC46
:105A6000E1E2E6EAFFE2E008E9D0ECEAF6EDF10F68
:105A7000000D12191D0F24312C363024231F261F30
:105A800006FB05FAEBF3F9F9E8DDF4ECE9F2E6F9E7
:105A9000FBEEDFE6F5E9E7F5FCF9030B15150F0D55
:105AA00018190F1F292214151706E9E7F1EDF10265
:105AB0000EFF03FBF6FCFBE2C8F5E7C1DAE9E6CE30
:105AC000D9EED4E2EEF615131C27251A2027211E45
:105AD000170D0500FFF7F8F2F70FFBFF111C11E897
